S01B00006275696C642F72656C656173652F7A69676265652E73333714
S21400400008100020C578000055D30000095D0300A5
S214004010095D03005DD3000065D30000095D030061
S214004020095D0300095D0300095D0300095D0300E7
S21400403069D3000040AD0400095D0300095D03007C
S214004040095D0300095D0300095D0300DD730000E0
S214004050095D0300095D0300095D0300095D0300B7
S214004060095D0300095D03006DD80000095D0300CB
S214004070095D0300A5AF010027B20300095D030038
S214004080095D0300095D0300095D0300095D030087
S214004090095D030041800000095D0300095D03001F
S2140040A0095D0300897C00006D7C0000095D03004B
S2140040B0095D0300095D0300095D03004D28020049
S2140040C051BD03004DBD0300B11F020067BD0300D4
S2140040D055BD03000D28020059BD0300410C020027
S2140040E08D280200095D0300095D0300095D0300D9
S2140040F0095D0300095D0300095D0300095D030017
S214004100095D0300095D0300095D0300095D030006
S214004110095D0300095D0300095D0300095D0300F6
S214004120095D0300095D0300095D0300095D0300E6
S208004130095D03001D
S214004134F0B5114A114C124E00F00105E3695F0711
S21400414413D40DB9334213D103EA00078F4207D1C3
S2140041540B4A1A40002A14BF6FF001000020F0BD7D
S214004164013AEBD16FF00200F9E74FF0FF30F6E7C3
S2140041746FF00100F3E700BF80969800000003503C
S214004184020001000B4B70B5D96911F480310DD1D2
S21400419401244FF48072084E084DF46020462C64C7
S2140041A41A61FFF7C5FF3464EC6070BD6FF0010060
S2140041B4FBE700BF0000035000100350002003502C
S2140041C438B541F6713301220C4C0021E569E363EE
S2140041D40B4B05F48035DA600223606121202361ED
S2140041E4FFF7A6FF10B92120FFF7A2FF0122054B17
S2140041F4DA600DB10023E36338BD00BF000003504E
S214004204001003500020035070B5134C6061E3693E
S2140042145B071ED40E4656F8043B8D18A361AE42C7
S2140042240BD10423002121202361FFF781FF58B915
S214004234BDE870402120FFF77BBF08210846FFF742
S21400424477FF10B10423236170BD56F8043BA361C5
S214004254E5E74FF0FF30F7E7000003502DE9F84399
S214004264174B1646DA69894602F4803841F67132ED
S214004274DA630122074603F58053124DDA6066B905
S21400428430460122104BDA60B8F1000F03D000224A
S214004294A3F50053DA63BDE8F88307F500542C4011
S2140042A4E41BB44228BF3446494622463846FFF744
S2140042B4ABFF0028E5D12744A144361BDFE700BF47
S2100042C40000035000E0FFFF0020035045
S2140042D02DE9F04F4FF0FD0BC9B09A460DF11B09C2
S2140042E09DF8503108AFCDF80C90CDF808B0019786
S2140042F0059303890446009383790E4690464188C9
S2140043008288407812F00CFF054650B10090A388D2
S214004310002062883C4913F043FA284649B0BDE8BD
S214004320F08F99F8000035F054F838B12846A38885
S2140043306288364913F034FA8D25EEE75A46394638
S21400434099F8000034F0EDFF8346002855D0529BC4
S2140043501BB1BDF84C3198424FD8002399F8009015
S2140043600793A9F14102012A5FFA8BFC36D838463A
S2140043700CF1FF3C5FFA8CFE254ADFF89CC07345C3
S21400438025DB059B07A94FF0040C0A6043BB1823E6
S2140043909FED1B7B5E431F486246831908363044F8
S2140043A083ED027B18F098F8B8F1000F01D088F87A
S2140043B00090BAF1000F01D0AAF800B0529B002B73
S2140043C0ABD05A463946184618F086F8A5E710F8D6
S2140043D0011F013351400CFB01F2D0E7059B3BB1B6
S2140043E023464A4661463846009610F0D1FD94E7CB
S2140043F0BCF1080FD8D83946C9E701258DE700BFBC
S21400440000000000000000003D5704007257040042
S214004410C59D1C8180100020930100010000000053
S2140044202DE9F04F93B0CDE90A32DDE91C630E9317
S21400443053EC102BCDE90801104619468DED060BFE
S2140044401E9D17F01FFA80B1DDE906014FF0FF321E
S214004450C74B17F03FFA40B9DDE906014FF0FF32CF
S2140044606FF4801317F018FA70B1DDE908019DEDBE
S214004470060B0E9B1E95CDE91C63DDE90A3213B0D0
S214004480BDE8F04F00F08CB90022DDE906010023FC
S21400449017F002FA002800F03781DDE906A303F1E1
S2140044A0004BCBF30A5015F48063A0F2FF3008BF30
S2140044B006260F9316F014FF9DA3D3E9002316F0EB
S2140044C079FF9DA3D3E9002316F0BEFDCBF31304BA
S2140044D0894644F07F5180460022A64B504641F460
S2140044E0401116F0AFFD96A3D3E9002316F062FF45
S2140044F002460B464046494616F0A6FD17F0F4F96C
S214004500044616F0EDFE90A3D3E9002380468946C4
S21400451016F050FF0022984B16F096FD17F0E4F9BF
S2140045208BA3D3E9002307464946404616F042FFD0
S21400453080463846894616F0D3FE87A3D3E9002383
S21400454016F038FF02460B464046494616F07AFDFE
S21400455002460B46CDE90C2316F02CFFDDE90C23B2
S214004560804689461046194616F06EFD0022CDE9B3
S2140045701001824B4046494617F046F80022804B11
S21400458016F062FD02460B464046494617F03CF8D8
S21400459000227C4B16F058FD02460B464046494624
S2140045A017F032F8DDE90C238046894600204FF0EC
S2140045B0804116F047FD02460B464046494616F037
S2140045C043FD02460B46DDE9100117F01DF807F221
S2140045D0FF3700226C4B16F037FD00223B0516F025
S2140045E0E9FE52465B468046894617F073F9002876
S2140045F040F08D80CDE90C8904F16303C62B8CBF97
S2140046000527042729051FD555A3D3E900235046BF
S214004610594617F055F9002800F0838052A3D3E9D5
S21400462000235046594617F037F9002879D0A6429D
S214004630D8BF00244FF00007C4BF341B04F1FF347A
S21400464026463C4645F480650E9B9F422CBF4FF0A5
S2140046500008A3EB070815F0020903D0002F18BFC7
S2140046604FF000083CB1DDE90C235046594616F0E1
S214004670CBFF82468B46DDE906010022002317F0B9
S2140046800BF910B10BF100439B46DDE9080125F458
S2140046900063CDE90183DDE90A324BEC10AB0096EE
S2140046A000F07EF802465FB3DDE9091315F0200F2F
S2140046B0089E00F101050CBF65204520B047DDE9E6
S2140046C008010523002205930A23002CCDE90232B7
S2140046D007F1FF374FEAD473B8BF64422A46019306
S2140046E004970A9B009436F0A9FC0246B9F1000F25
S2140046F006D00B9BC41A0B9B1A190E9BA34245D8D7
S214004700104613B0BDE8F08FDDE906ABC9E600221F
S214004710404649461A4B16F077FF013CCDE90C019E
S2140047206AE7002E90D00F9B002B8DD0013E8BE7C2
S214004730FB799F501344D33FB3C8608B288AC63F8B
S21400474061436F63A787D23F71A379094F930A40ED
S2140047501655B5BBB16B0240EF39FAFE422EE63F66
S2140047602D431CEBE2361A3F0000000080842E41E9
S214004770FFFFEF7F0000F83F0000E03F00002C4006
S21400478000002440000018400000F03F2020DDE933
S2140047900913089DA8470134ADE700BF00000000DC
S2140047A02DE9F04F5BEC10AB97B0CDE90501DDE9E4
S2140047B02048CDE90723504652465B465946229F7D
S2140047C017F060F870B90323CDE902870193A44B74
S2140047D00093DDE90501DDE9072336F061FB17B03C
S2140047E0BDE8F08F4FF0FF326FF480135046594605
S2140047F017F052F828B10423CDE902870193994BAC
S214004800E6E74FF0FF3250465946974B17F062F8EE
S21400481050B178074CBF04220322CDE902874CBF73
S214004820924B934B0192D3E7504689A3D3E90023DA
S214004830594617F04FF838B987A3D3E900235046F6
S214004840594617F029F868B1DDE90723DDE90501C7
S2140048504BEC10ABCDE92187209417B0BDE8F04FA4
S214004860FFF7DEBD002200235046594617F014F825
S214004870B8B15B4652460020002116F0E3FB012348
S21400488082468B46099317F4806F08BF06243021B2
S21400489023460EAAA4F12009092B04D89946E41A47
S2140048A007E00990EFE7013B4B4502F8011BF3D107
S2140048B020245946504617F017F86E4B054603EB72
S2140048C0C90393ED007B8DED0A7B16F009FD0246C9
S2140048D00B465046594616F0B5FBDDE90A2316F09E
S2140048E069FD02460B46CDE90C2317F025F806466F
S2140048F016F0E6FC02460B46DDE90C0116F0A2FBBC
S21400490002460B46CDE90C2300225B4B16F0E2FF75
S214004910B8B10136304616F0D3FC02460B46DDE948
S2140049200A0116F0C3FF08B100260135B9F1000FE1
S21400493014D00A210EAB1A19202C40D13022A144E3
S21400494050E00022DDE90C014B4B16F0A5FF0028D5
S214004950ECD10EB1F107E9D50136E7E7284616F0A7
S214004960BFFC02460B465046594616F06BFB00222B
S214004970414B16F091FF10B9013525F001050A21CB
S2140049800EAB1A19202C0AD095FBF1F001FB10553E
S214004990303502F8015B013405460028F2D107F0F5
S2140049A00302012A38D1B8F1000F35D0099A12B99E
S2140049B017F00C0F01D008F1FF38302223E0B6FBC9
S2140049C0F1F001FB1063092E03F1300309F1FF3902
S2140049D004F1010402F8013BB0D90646ACE70EA983
S2140049E00A551C46202CCAD04C4504F10103F6D1CA
S2140049F004F158020DEB02042E2204F8202C1C466B
S214004A00BDE71A550134A04506D9202CF9D1CDE9C9
S214004A10028701940EABDBE6202CF8D0099B3BB155
S214004A202D2204F158036B4403F8202C0134EEE7E2
S214004A307A0704D504F158032B226B44F4E73B07AE
S214004A40E5D504F1580320226B44EDE7AFF3008070
S214004A500000000065CDCD410000000065CDCDC151
S214004A60C8740400CC740400FFFFEF7FBF7404001A
S214004A70C4740400B0BD04000000E03F0000000065
S214004A8070B58EB02C22002103A817F087FB642394
S214004A904FF002320893CDE905230B2301218DF850
S214004AA034305B4B8DF810101D880D4040F0A98007
S214004AB008463AF0FBFD0A22564B574C1A704FF444
S214004AC02873ADF812304FF0FF332360534B544930
S214004AD01B8820460B82534B534A1B68CD828B6142
S214004AE0524B0D621B884B82514B1B68CB611DF0ED
S214004AF043FF20B14FF41B714E4839F03DFF0521AE
S214004B00206836F086FC20B140F27D21494839F015
S214004B1033FF206816F052FA474B2068196836F0C3
S214004B203BFD0C253BF02AFA684309903BF026FA39
S214004B3068430DEB05010790206818F071F920B165
S214004B4040F295213B4839F017FF256820F0BEFA61
S214004B5000220146284636F097FD20B140F2972104
S214004B60344839F009FF40F20353344D344E2B805D
S214004B70052396F90000AB707F2801D11DF0F2FFE7
S214004B803378EB703BF0FAF900EB80008000A880E9
S214004B903BF0F4F90023C0004FF0FF31E880AB6033
S214004BA04FF0FF3018A3D3E900233AF0D1FE254991
S214004BB0206836F022FD206802A937F03EF920B1C1
S214004BC04FF434711B4839F0D7FE042220680DEBF1
S214004BD0020136F0B6FC042804D040F2D72115486E
S214004BE039F0CAFE01A9012036F0BFF808F0F6FB3E
S214004BF001201EF049FC31F0A5FE1EF06FFC1DF0F2
S214004C0049FF0EB070BD00BF0A0020FF420300003F
S214004C10A65E002020660020D8560020FED604009F
S214004C20FC6C002004D70400D5F60300FCD6040074
S214004C3000D70400F1AB04002C6A0020CC560020FC
S214004C401A70002049F703000348044B834202D041
S214004C50034B03B1184770474C7000204C7000207F
S214004C6000000000064B0749C91A891048BF0131E9
S214004C70491003D0044B0BB101481847704700BFDA
S214004C804C7000204C7000200000000010B5064C50
S214004C90237843B9FFF7D8FF044B13B10448AFF3AA
S214004CA000800123237010BD68160020000000005D
S214004CB0A4FA040008B5044B1BB104490448AFF33A
S214004CC00080BDE80840CDE7000000006C1600201C
S214004CD0A4FA0400A3F5803A704700BF154B002BDA
S214004CE008BF114B9D46FFF7F5FF00218B460F4688
S214004CF01148124A121A17F051FA0C4B002B00D02A
S214004D0098470B4B002B00D098470020002104004A
S214004D100D000B4817F036FD17F018FA2000290092
S214004D2030F012FD17F01CFD000008000000000027
S214004D3000000000081000200810002084660020F4
S214004D4091C7010007B5012120200DF1070201F0EF
S214004D500DF850B1012120200DF107028DF8071043
S214004D6001F014F803B05DF804FB9DF80710012964
S214004D70F8D00122084815F0B7FF01210DF107020F
S214004D8020208DF8071001F001F830F05FFC4FF49A
S214004D90FA6000F037FEE5E7680D040038B501F06C
S214004DA07FF9012805D001F07BF9022801D001F037
S214004DB09DF9064D2B783BB901F072F9012804469F
S214004DC002D130F0B8FC2C7038BD00BF925F0020D6
S214004DD010B50446008830F00DFCA37884F8440033
S214004DE0834202BF0123E3702371074B04F11C00CA
S214004DF0C4E9073401F014F8224620880349BDE8C8
S214004E00104000F04DBF00BF8B5303005553030006
S214004E1070B5C37804460D461646002B34D1D1B182
S214004E20214815F061FF0123E370E36CA6600BB127
S214004E30E06D9847E368F61A63699E4221D2217EA8
S214004E401A480131C9B2217615F04EFFA36D13B191
S214004E50217EE06D9847E57030F00BFC15B32379A2
S214004E6003BBA268238A801A83421BD801231048FA
S214004E70237115F039FF236DA3B1E06DBDE87040D6
S214004E80184701232376E6E70029E4D1094815F000
S214004E902BFF636DE660E5702571002BDBD0E06DBF
S214004EA09847D8E770BD00BF900D0400A10D040020
S214004EB0CF0D0400BC0D040070B51E468388044662
S214004EC00D46C18002810BB1868070BD8178008856
S214004ED030F07CFA0123E370064BA680C4E9033465
S214004EE00C34204600F09CFF29462046BDE8704062
S214004EF030F0B6BBD753030010B501790446B1FABB
S214004F0081F10088490930F0D8FA21796088B1FA31
S214004F1081F1490930F0D1FA034B1A68A24204BF66
S214004F2000221A6010BD00BF8416002070B54379B9
S214004F300446A3B100880E4E04F10805336813B189
S214004F400C4B1B786BB1217930F0B7FA64210A4B11
S214004F503460A3602846BDE8704030F081BB4088CE
S214004F60E9E7064815F0C0FE054B3221A360F1E7DD
S214004F7084160020935F0020F94E0000E50D040023
S214004F802D4F000010B50446E0B10F4815F0ACFEFA
S214004F9001236371A37953B92179208830F08DFA03
S214004FA0236B7BB1606B0121BDE81040184720469B
S214004FB0FFF7A2FF04F1080030F057FB2046FFF78A
S214004FC0B5FFEDE710BD00BF1B0E040010B504468C
S214004FD0F8B1104815F088FE00236371A3796BB909
S214004FE021792088B1FA81F1490930F066FA236BFD
S214004FF07BB1606B0021BDE8104018472046FFF7E4
S2140050007BFF04F1080030F030FB2046FFF78EFFF0
S214005010EDE710BD260E040010B5044668B107483B
S21400502015F062FE637920461BB1BDE81040FFF71D
S214005030CDBFBDE81040FFF7A5BF10BD320E04007F
S21400504010B50E4C0E48214615F04EFE82210D4836
S21400505015F04AFE82210220A21E00F097FE0146AD
S21400506030B134F8022C0848BDE8104015F03CBEBC
S2140050700648BDE8104015F037BE00BF2A5800208D
S214005080410E04005C0E0400670E0400AB0E040024
S21400509038B5124C82212246022000F067FEA51C7D
S2140050A0014698B122880E4815F01EFE2A460D4B82
S2140050B003F1280153F8040B8B4242F8040BF9D194
S2140050C019889B78118093702A23238035F8021C58
S2140050D0054A0648BDE8384015F006BE28580020A8
S2140050E0B60E0400360F04002A580020140F0400E1
S2140050F0034B1B781BB18B4201D830F0A7BA704720
S214005100BA6F002010B5044601460E4815F0ECFDB7
S214005110012C11D10C4B0D481A884FF6FF739A429A
S2140051201EBF0022094B5A7430F0ADF901F074FD31
S214005130BDE8104001F048BC0448BDE8104030F01F
S214005140A4B900BF610F04006C6F0020B86900208E
S21400515070B500241A4D1B4E3378A3421BDC002486
S214005160194D1A4E3378A3421BDC0024184D194EF5
S2140051703378A3421BDC00F093FF012816481CD1AD
S21400518030F081F901F048FD01F01EFCBDE87040EA
S214005190124800F0A5BF2846FFF71AFE0134603516
S2140051A0DAE7284630F055F901343435DAE7284690
S2140051B030F088F901343835DAE730F066F9E5E79B
S2140051C0B8210020995F0020D82500209A5F002093
S2140051D0881F0020985F0020B86900200551000055
S2140051E02DE9F04F87B0FFF753FFB34B05A80593A3
S2140051F030F08CF9054616F04DFEB04CC2B21F2AB0
S214005200627004D9AE4815F06FFD00F0EFFB29463A
S214005210A01C17F061F905A830F078F9054616F0DD
S21400522039FEC2B21F2A84F8212001D9A548EAE730
S214005230294604F1220017F04FF905A830F066F968
S2140052403226044600272578002D40F09380DFF8AC
S214005250B0A2FFF77DFF9AF80030DFF8A8B2DFF8BB
S214005260A882994F00939BF8003098F80020397870
S214005270964815F039FD3A7898F800109BF800002B
S21400528053180344DFF870929AF800002C46034443
S2140052904846DBB2AA4200F3BF82012B38BF012387
S2140052A08B4E02933246002334464FF482714FF6FB
S2140052B0FF7502980133834213705180958002F186
S2140052C00C02F6DB834B82497C48A36000F0BEFFED
S2140052D00C20A368E27900FB023000F095FDE3792C
S2140052E00133E3717C4B1B88AB4203D078497B4883
S2140052F001F0ACF80023774D39780C22994200F380
S214005300938200264FF00C09754B98F800203978E8
S214005310B24200F3BB820C23002602EB010903FB1A
S21400532009419BF800006F4AB04200F3CB8298F820
S21400533000304FF00C083E784FF0700900271E44EE
S214005340064408FB0644DFF8C4B19AF80030BB42B6
S21400535000F3CE8202995E4800F0E4FD059B5649B4
S2140053601A468B4240F0D5825F4807B0BDE8F04F42
S21400537015F0BABC532D0FD163784C2B40F0438107
S214005380A378502B40F03F810122584B1A7005A895
S21400539030F0BCF8044656E7442D13D16378303B12
S2140053A0092BF4D8601C30F0BEF8514B514A1978DE
S2140053B0002386B2994202F16002E8DD22F8466CCC
S2140053C00133F7E7422D0BD16378542B54D1A01C40
S2140053D000F0B4FC404B188018462FF098FFD6E734
S2140053E0582D33D8412DD2D9433D152DCFD801A302
S2140053F053F825F09B5700008F5300008F53000092
S2140054008F5300008F5300008F5300005D5500003F
S2140054108F5300008F530000115500005F540000AA
S2140054208F5300008F5300008F5300008F530000EF
S21400543091560000075600008F5300008F5300005F
S2140054408F5300008F5300000B570000692D9ED12C
S214005450601C30F068F880B230F0F4F897E71A4B2A
S214005460012019780023244A994202F1A8028EDD11
S21400547002F8A60C0133F7E7601C00F05FFC054657
S214005480E01C30F0C8F801210246284630F07FF8CC
S21400549060211748174C03785943621865524FF439
S2140054A0FA6111824FF448715161144956831165AF
S2140054B0013303706BE700BF2A580020CC68002039
S2140054C0800F0400970F0400975F0020A70F0400CA
S2140054D0D8160020501700206C6F00208816002079
S2140054E0DC1B0020201A0020F70F0400935F00202A
S2140054F0995F0020B8210020DC1C0020F754030030
S214005500945F0020955F0020965F0020D018002052
S214005510601C00F013FC00224FF034088146CB4F8D
S214005520114630F034F83A78C94D08FB02F225F8F7
S2140055300290E378A818693B18BF012383702FF008
S21400554088FF0023C3493A784B60012308FB0255C5
S2140055501A443A700D601F460B7418E7601C00F082
S214005560EDFB00221146814630F011F83422B74D8B
S214005570DFF8DC822B78534328F8039008EB03000F
S214005580E378693B18BF012383702FF062FFB24AAD
S21400559000231046916B31BB342200EB83102B782E
S2140055A002FB03838363AD4A00231046D2F8A4109F
S2140055B0F9B9A82202FB030034222B7802FB0383EE
S2140055C0C0F8A4305FB9A34A3B46114652F8040B14
S2140055D0A8B934202A7800FB028241F823202B78D1
S2140055E001332B70D3E60133042B02F14002D1D1F4
S2140055F0D9E70133042B02F1A802D7D1E2E7013341
S214005600042BE3D1EBE7601C00F098FB0546E01C9A
S21400561030F001F80121024628462FF0B8FF4FF07F
S214005620600C8F488F490278DFF830E20CFB02FCF2
S21400563021F80C504FF4487501EB0C031D825D6198
S214005640894D5E839D65E478884D642C04BF0124F3
S2140056509C70A8242B785C430EEB040C0EF80430E8
S2140056604FF40074ACF8024003248CF804408CF825
S2140056700640602404FB0211CCF8081032210133E6
S214005680DBB201328CF805308CF8A0100270A8E767
S214005690601C00F053FB00224FF038098246DFF80A
S2140056A0E88111462FF073FF98F80030704D09FB23
S2140056B003F225F802A04FF0010AA91881F804A009
S2140056C0E2787AB1E01C00F039FB0022044611466D
S2140056D02FF05DFF98F8003009FB0359A9F8024047
S2140056E089F806A063495C480A784FEA821C00EBFA
S2140056F0821400F80C20382000FB035501320133D9
S214005700656388F800300A7041E6601C00F016FBFE
S2140057108046E01C00F012FB0546601D2FF07BFF64
S21400572004460246012140462FF031FF2246284615
S21400573001212FF02CFF6021DFF824C1DFF824E1DF
S2140057409CF800204FF4487401FB02F30EEB0300B4
S2140057502EF80380531CDBB24B430EEB03012EF8EE
S2140057600350931C9422048244610C824C61424C88
S2140057708CF800302378414D5A43DFF8EC8005EB77
S214005780020CAB5401334683C0F85880CCE90101C3
S2140057904E83C1F858802370F9E5601C00F0CEFAFD
S2140057A00546E01C00F0CAFA0022044611462846C8
S2140057B02FF0EDFE00224FF038094FF00108114699
S2140057C020462FF0E4FEDFF8C0C029489CF80020F1
S2140057D04FF0000E09FB02F3C118C55202EB080396
S2140057E0DBB209FB03F3C518C452931C702224488D
S2140057F08CF800300378234C5A4304EB020C81F8F3
S214005800048081F806E0A354CCE9011585F80480ED
S21400581085F806E043444CE6467901358E4284BF5F
S21400582004714471A83035E523B116F8051C02FB57
S2140058300155B56031464846039301F0C1FB039B12
S21400584009F1A80901330C3656E500BF9A5F00201F
S214005850D8250020B8690020DC1B0020DC1C0020B6
S214005860995F0020B8210020F1500000975F0020CB
S214005870881F0020965F0020955F0020201A0020D9
S214005880945F0020D0180020985F0020711808D080
S2140058904A1E09FB0242D27909FB025509FB014266
S2140058A09560184609FB0141039301F049F93978E0
S2140058B01C48314409FB014101F06EF8039B013698
S2140058C0403322E516EB090F18BF11F8050C0391BB
S2140058D018BF03FB00554FF0940318BF8D6003FB01
S2140058E0062000F073FF03990C2301360C3118E5EF
S2140058F0F74218BF14F8053C214618BF08FB0355AD
S21400590009FB07B018BFA56000F038FE01370C345D
S2140059101BE513F8011D00297FF421AD3B2102F899
S214005920011C1CE57C1F002007B5012121200DF17C
S214005930070200F01BFA18B99DF80720024B1A70F0
S21400594003B05DF804FB00BFBA6F002007B5064B36
S2140059508DF80700187001210DF10702212000F0D4
S21400596015FA03B05DF804FBBA6F002007B50221F4
S21400597001200DF1060200F0F9F938B9044815F0D7
S214005980B3F9BDF8060003B05DF804FB0020FAE7A3
S2140059901410040007B50221ADF806000DF106024A
S2140059A0012000F0F3F9014610B1034815F09CF908
S2140059B003B05DF804FB00BF3510040010B5FFF718
S2140059C0D5FF04460146074815F08EF90121064822
S2140059D015F08AF924B9BDE810400120FFF7DABFB8
S2140059E010BD00BF651004007710040008B5044819
S2140059F015F07AF900F0DAF92FF028FE2FF023FEE2
S214005A008D10040010B50446084A094B1046136072
S214005A1000F006FA002C18BF2146BDE8104008BF6B
S214005A204FF4967101482FF01BBE00BFDC26002005
S214005A30455503002DE9F043384D91B008AC0746B4
S214005A40894690460FCD0FC495E80F00002684E8DF
S214005A500F0001250323324C3248CDE90366CDE919
S214005A6005668DF80E30079602953AF009FF2E4827
S214005A703AF006FF32462D4920468DF8176004F0AE
S214005A80E3FD334632462A498DF819000090204639
S214005A908DF82390CDF82C808DF8216004F0EEFD73
S214005AA00A9020468DF8097004F054FD204608AA96
S214005AB005A904F009FE02AA204603A930F091FECB
S214005AC04FF400721B4B5A62194BE560626A9205EE
S214005AD010D46BB94FF40072164B11485A6204F09A
S214005AE039FD11483AF0CFFE002011B0BDE8F08332
S214005AF0013BEBE7002BEDD0094908A830F0A4FEE7
S214005B004FF400720B4B06485A6204F023FD064819
S214005B103AF0B9FEBDF82000E7E700BFF8AC040095
S214005B200040005AA4AF0400A0AF040080841E000A
S214005B3040420F000060005A0122034B1870034BCE
S214005B401980034B1A7070479C5F0020746F00200A
S214005B509B5F0020F8B5444B1B780BB90020F8BDBE
S214005B60424B1B78012B03D1BDE8F8402FF0EDBC6B
S214005B703F4B1C884FF6FF739C42EFD03D483AF0EF
S214005B807FFE0023270AE4B21A462146384604F070
S214005B90A1FC012F04F0010326D00ED9BD1E012D55
S214005BA0DCD8002B39D04FF080754FF070624FF480
S214005BB080364FF47021304B09E003B34FF0807508
S214005BC04FF070624FF480364FF470212B4B1868FC
S214005BD0084029D0B04227D0196811403FD1196833
S214005BE021EA02022A4323E083B14FF080754FF08A
S214005BF070624FF480364FF47021214BE7E74FF484
S214005C0080754FF4706201260F21DFE74FF4807530
S214005C104FF470623E460F21EFE74FF480754FF465
S214005C20706201260F21C6E71A6822EA0102324393
S214005C301A602FF08AFC054600288FD0083744EA01
S214005C4007102A460321C0B2FFF7F4FE40F6FF73A2
S214005C50684300F2FF70B0FBF3F080B27FE7A94222
S214005C607FF47CAFBBE700BF9B5F00209C5F0020FB
S214005C70746F0020A4AF040028C3035020C3035051
S214005C8024C3035010B5044C237823B903483AF0D4
S214005C90F7FD0123237010BD9E5F0020A4AF040013
S214005CA02DE9F0431F4C85B0074688469146FFF71E
S214005CB0E9FF23781BB901F0A1FE012323707BBA0C
S214005CC0ADF80C3030220023174E02FB03F4315D92
S214005CD0A51901BB012333554FF0FF3304F1100023
S214005CE012493044AB606F80C5F80480C5F80C904C
S214005CF00AF086FA04F10801042231440C4B0095A0
S214005D0003A801F051FFA96802460A4814F0ECFF08
S214005D1005B0BDE8F0830133102BD6D1064814F049
S214005D20E3FFF5E79D5F0020042700206F55030082
S214005D30815503009A100400C810040080B1027850
S214005D40A2F14103032B0BD840783038C0B20828A4
S214005D5006D8054B134413F8413C40EA032070472D
S214005D604FF6FF70704700BF18AD040008B50B462D
S214005D7042B101460448006803F070FABDE80840E6
S214005D802FF05ABC022008BD246A002008B50B4636
S214005D9042B101460448006803F0ECFBBDE8084049
S214005DA02FF04ABC022008BD246A00202DE9F041ED
S214005DB04FF000088CB0134F02AEFF2300930A2268
S214005DC043463146386830F0CAFAC0B1354606EB6D
S214005DD0800405E055F8043B434528BF03F101085D
S214005DE0AC423868E9D9296803F04CFD0028F1D0A8
S214005DF02D28EFD00CB0BDE8F0412FF01DBC0CB044
S214005E00BDE8F081246A002028B1034B0360034BF1
S214005E10436000238360704719000003CC690020AC
S214005E20FF2307B50021044A009308300AF06AF9F8
S214005E3003B05DF804FB00BF5B5603000B46044945
S214005E40024608680349097808B12FF019BC704764
S214005E50102A0020A05F0020F7B50C4618B12921B3
S214005E60194838F089FD246823685E795F883046D3
S214005E703946FFF7E3FFF0B18568E5B1A089227DDA
S214005E803946904291BF0020801AA36880B294BF22
S214005E9003469B18E27C00903046A847013803284A
S214005EA003D8DFE800F0080F0B0D0024204633F07F
S214005EB0D7FF204600E0812003B0F0BD8024F5E740
S214005EC09324F3E78724F1E7F0100400F8B51546AD
S214005ED00D4A044610680D4A0B46117850B122460A
S214005EE02FF0CEFB034628B100210C27C678B1421E
S214005EF001DB0020F8BD07FB01F45A681019125B9D
S214005F00AA42F7D00131F2E7102A0020A05F002055
S214005F1008B5034B1B6803B19847002008BD00BFB7
S214005F200C2A00202DE9F74F04460D460026444B68
S214005F30444F1860444B197033010021F85C013659
S214005F4010F0DCFE0C2EF7D10C2D28BF0C254FF0E0
S214005F50000901953B4EDFF8FCA03C4DDFF8F880C9
S214005F60019B4B4502DC03B0BDE8F08F23784FF071
S214005F70000B337063887380A388B380A379C6F858
S214005F800880B371E379C8F8005088F804304FF001
S214005F900003A768A8F80630E3795B450ADC012110
S214005FA016F8100B10F0AAFE08F1080809F101090E
S214005FB00C34D5E74FF0000338886B812880F978D9
S214005FC04FF0000C2981BB78C5F804A0002B009385
S214005FD00CBF802340232B737A680AF10C036145BB
S214005FE012DC0C2303FB01AABB6843B1009A4FF6F0
S214005FF0FF71B2FA82F2164B520933F0C1FE143525
S2140060000BF1010B0C37C7E7B2F800E00CF1010CFE
S21400601023F80CEC92F802E00C3303F816EC92F836
S21400602004E00C3203F815EC12F809ECBEF1010F8F
S21400603014BF4FF0100E4FF0110E03F814ECCEE71D
S214006040102A002058420020A05F002014300020B4
S214006050595E0000142A002094320020014B18607C
S214006060704700BF082A002070B5128805460E4605
S214006070FFF72CFF044670B102790499806815F08A
S21400608037FF064B1B680BB9002070BD314628460B
S21400609022889847F8E78620F7E700BF082A0020FE
S2140060A008B50FF0D1FE022806D0012806D0044B12
S2140060B018784000C0B208BD0120FCE70220FAE7CD
S2140060C09F5F0020054B10B51C682CB1FFF7E8FF5A
S2140060D02346BDE81040184710BD00BF042A002024
S2140060E0014B1860704700BF042A0020034B1A7843
S2140060F01AB901221A700BF0F1BE70479F5F00209C
S2140061000022024B1A70FFF7DDBF00BF9F5F002022
S21400611037B50446002832D00FF096FE022830D15C
S214006120608934F018FAE079237A003818BF012025
S214006130012B637A08BF40F008000BB140F0100056
S21400614063890BB140F00400257CA188A2790DB1CB
S214006150E36873B90C4B11F0ADF92178084611F0DD
S21400616025FA33F006FD002814BF0320002003B0F4
S21400617030BDCDE90035054B11F09CF9EDE7022066
S214006180F5E70120F3E700BF56640400BD330400C2
S21400619008B50DF0BFFF014630B1044814F0A4FD69
S2140061A0BDE808400EF066BB08BD00BF49110400FC
S2140061B0034B044A5B7C012103201370FFF7E6BD06
S2140061C0B8690020A15F002010B50446FFF7F0FF75
S2140061D0B4F57F4F0BD100240F4B1A8813449C70E4
S2140061E0FEF72EFF2046BDE81040FFF70BBC4FF62B
S2140061F001739C4204D1BDE8104008482FF02BB92B
S2140062004FF602739C4205D1BDE81040044B187847
S214006210FFF79CBB10BD00BF28580020B8690020BF
S214006220BA6F002010B5074C012122460320FFF765
S2140062309DFD28B92378044A003B18BF01235374F8
S21400624010BD00BFA15F0020B8690020F8B5554B0F
S214006250554C1A884FF6FF739A4218BF03234FF027
S214006260080218BF2370514B36251A7032225A7016
S214006270DA70DA7133221A724FF400121D719D71B2
S2140062804B4D3026C5644B4D426405654A4D012290
S21400629085654A4D9E70C565494D5E714566494D9A
S2140062A086188566484DC6670567484D484E45675B
S2140062B0202580F8785080F8845000F12105C0F839
S2140062C08850444D80F84820C0F88C5080F8542000
S2140062D080F8602080F86C20C0F8806080F89020FD
S2140062E0C0F8B8303C4BC0F89440C0F8BC303B4CCB
S2140062F00223C0F898403A4C80F8C030C0F8A4405A
S2140063000F24384B80F8A840C0F8C430364B374CC2
S214006310C0F8C8308223C0F8AC40354C80F8CC308A
S214006320C0F8B0400924334B334DC0F8D030334B5F
S21400633080F8B440C0F8D4302C7C314B80F89C20D8
S214006340C0F8A00080F8D820C0F8DC3044B12D4B4F
S21400635080F8E420C0F8E03005F11103C0F8E8301A
S2140063600C224FF0000CCB798F685A4327F802C0F6
S214006370BE180122443013440D347060B270F470BD
S214006380CB71FFF7D1FAFFF74DFFFFF789FE012823
S21400639006D12B7C23B1BDE8F84017482FF05BB838
S2140063A0F8BD00BF6C6F0020BB6F0020A25F00200E
S2140063B031AD04000100200030AD040002002000D2
S2140063C02FAD0400030020002EAD040004004200A0
S2140063D00500420007003000FDFF210012001001FA
S2140063E0004042002CAD040000FF44011CAD040038
S2140063F00600420028580020B869002002FF20014D
S214006400BA6F002001FF100113B504460D482EF0A8
S21400641089FF6422C0F30F43637083B2B3FBF2F3C9
S214006420A0782370202201212FF04CF9A078212299
S21400643001212FF047F90449201D02B0BDE81040A5
S2140064402FF00EB96C6F0020E09304000B7870B547
S21400645083704CF61E0303804FF02013C3620123A3
S21400646080F8303080F83C30C3180364114B124A71
S2140064704364022382630C22044680F848300F4BA4
S2140064804063C364CB798D685A4304F12C06A81880
S21400649046600B4E0133AE5000228260CB71094B32
S2140064A0201DC4E90134FFF7BBFC2046BDE8704060
S2140064B0FFF7AABFFDFF21002100200032AD040037
S2140064C00100010309640000437B044A01211370A4
S2140064D000781130C0B2FFF759BC00BFAC5F002097
S2140064E038B504460078054D11302A460121C0B261
S2140064F0FFF73CFC08B92B78637338BDAC5F00200F
S214006500024B53F820002FF0A4B900BFF43200204D
S214006510012908B506D0022907D049B92FF090F90D
S214006520002008BD2FF08FF9FAE72FF08FF9F7E774
S214006530024814F0D9FB0120F3E700BF76110400EF
S21400654010B4054C114654F820001A46BDF8043025
S2140065505DF8044BFFF7DCBFF4320020002310B5D3
S214006560044683810364A0F844304830FFF758FCA3
S214006570014BC4E9123410BD3958030038B504463F
S2140065800B78194A43700D4642F82300FFF7E6FFE2
S2140065902046FFF7A5FF4FF44013144A2361A2617B
S2140065A0134A0123E261134A23756262124A84F891
S2140065B02030A26204F10C022263104A84F82C30C8
S2140065C062630C2284F8383004F10D03E363EB7940
S2140065D0A8685A43103481184C60094C0133845023
S2140065E0084A8A60EB7138BDF4320020AB5F0020A9
S2140065F008002000BC6F002000FF300001FF1001E3
S214006600020101044165000010B47024427B0D486D
S214006610013A012904FB020006D0022908D059B924
S2140066205DF8044B2FF00CB95DF8044B2FF00BB956
S2140066305DF8044B2FF00AB903485DF8044B14F0DC
S21400664053BB00BFD018002092110400B0F85C3095
S2140066502DE9F0418B4204460E4638D0437B077C3A
S2140066608BB31C4A12789A422DD370251A4A013BE6
S21400667005FB032390F80F801B7B42462FF0F7F8AC
S214006680B845054601D1FF281FD13A463146204677
S21400669094F890302FF0EBF82F460546552212213D
S2140066A06078A4F85C602FF00DF8FF2F03D0394611
S2140066B02046FFF7A9FFFF2D09D029462046BDE852
S2140066C0F0412FF014B9FF25DFE70746E6E7BDE8FF
S2140066D0F08100BF945F0020D018002041688268D7
S2140066E0C978D27849B112B10321FFF7AFBF837BD7
S2140066F0002B0CBF01210221F7E72AB1837B002B78
S2140067000CBF02210121F0E7014814F0EDBA00BFEA
S214006710A3110400037BD3B14368DA7812B1826810
S214006720D278A2B91B7933B1837B002B0CBF04212E
S2140067300521FFF78BBF83681B792BB1837B002B6A
S2140067400CBF05210421F4E7014814F0CDBA7047C8
S214006750D5110400084A437B05211370837B5370D0
S214006760C37B9370037CD370037B137100780E3069
S214006770C0B2FFF70BBB00BFAD5F002038B50446C4
S21400678000780C4D0E302A460521C0B2FFF7EEFA0F
S21400679020B1BDE83840084814F0A6BA2B786373D9
S2140067A06B78A373AB78E373EB7823742B7923733E
S2140067B038BD00BFAD5F002011120400024B53F835
S2140067C020002FF0DEB800BF1C330020F8B50446CA
S2140067D00B78414A43700D4642F823003F4E2FF097
S2140067E0EEF8FFF7CBFF6268A3683D483D49D664E4
S2140067F050651165D465C3E91410DE64DC654FF09E
S21400680098730227636101230C2604F10C01E161F1
S21400681035491032216204F10D01A1623349237615
S214006820E16204F10E016163314984F82430A1630A
S21400683004F10F0121642F4984F83030616404F1BB
S2140068401001E1642C4984F83C3084F84830216516
S21400685084F85470A265EA79A96806FB02F004F190
S214006860140E01EB000CCCF804E04FF4817EDFF848
S214006870ACC041F800C0D018C0B2704341F800E088
S21400688001EB000C0020CCF804001C4884F87030A3
S21400689020661B4884F88830A0661A481A4BE066C3
S2140068A01A48C4F88C30D3196067DBB218487343B3
S2140068B0A06704F15C00C4F88000164884F8647091
S2140068C0C4F8840084F87C70C818603444601248A9
S2140068D00332C850EA71F8BD1C330020DD660000A4
S2140068E04559030015670000010020010200100151
S2140068F00300300104003001050021014A00210098
S21400690034AD04005100100036AD040037AD04006D
S214006910550021006F0018001200010401FC01065A
S21400692070B50D460646144613460A4601461648F6
S21400693014F0DAF925B92046BDE87040FFF744BCEC
S214006940072D05D121463046BDE8704000F0FCBA60
S2140069504FF601439D4205D121463046BDE87040C2
S214006960FFF72CBF062D05D121463046BDE8704006
S21400697000F0A0B8B5F5817F05D121463046BDE8C8
S2140069807040FFF7BDBD70BD401204000148FFF720
S21400699065BB00BF216900004FF4C01330B503602B
S2140069A001230C220371064B8C688360CB795A4313
S2140069B0A518686003480133A050CB7130BD00BFF6
S2140069C038AD04000400010138B50024044D55F824
S2140069D0040B08B12FF003F801340A2CF7D138BDA8
S2140069E044330020042908B50AD172B16BB113787C
S2140069F01BB92FF01FF8002008BD2FF011F8FAE79A
S214006A00034814F071F90120F6E70320F4E700BF0D
S214006A107312040010B4054C114654F820001A46B0
S214006A20BDF804305DF8044BFFF7DCBF44330020AC
S214006A300229024608B50ED004D839B910462EF001
S214006A40F9FF06E04029F9D0412907D110462EF07B
S214006A50E7FF002008BD2EF0F7FFFAE7024814F023
S214006A6043F90120F6E700BF9312040010B4054C6A
S214006A70114654F820001A46BDF804305DF8044B61
S214006A80FFF7D6BF44330020426B094B52791A7089
S214006A9082785A70C2789A70826B12B190F83C2055
S214006AA0DA70007804210930014AC0B2FFF76EB9E7
S214006AB0B25F0020024B53F820002EF0E1BF00BF6B
S214006AC04433002038B504460078084D09302A467D
S214006AD00421C0B2FFF74AF930B96B78A370AB78DF
S214006AE0E370EB7884F83C3038BD00BFB25F00201E
S214006AF038B504460078114D09302A460421C0B244
S214006B00FFF734F9C8B9A3782A78022B0CD004D83A
S214006B1063B920462EF08EFF01E0FF2B0AD02046F8
S214006B20BDE838402EF05BBF002AF2D120462EF09A
S214006B3077FFF4E7002AF9D1EBE738BDB25F002013
S214006B40F8B504460B78274A0D4642F823004370F2
S214006B50FFF7B8FF636B244A5C631A632046FFF7AF
S214006B60C7FF20462EF03BFF4FF4801363600123DF
S214006B70626BA66B0532E2601C4A23722261A21C7D
S214006B802375A26166B11A4A84F82030E261E21CDD
S214006B906262184A84F82C3004F13C03A262236334
S214006BA00C204FF0060CEA79A96800FB02F70434C3
S214006BB0CB1921F807C05C600124002E0CBF02260A
S214006BC004269C700C4CDE709C60531CDBB2434366
S214006BD00A4CC818CC5000234360094B023283602D
S214006BE0EA71F8BD443300205D5A030003403001CB
S214006BF001FF300102FF10016D6A0000080001006D
S214006C00156A000028B1034B1B78834234BF00206E
S214006C1001207047965F002070B500250A4C0B4E89
S214006C203378AB4200DC70BDD4F8A42042B123799F
S214006C301BB16079FFF7E6FF10B910462EF0FCFB9B
S214006C400135A834ECE700BFDC1C0020975F00206D
S214006C5008B5427901461046FFF7D4FFA8B1CB78B5
S214006C600A48013A042B00EB82100ED8012B08D8F4
S214006C701BB9BDE808402EF0D3BEBDE808402EF094
S214006C80D9BEBDE808402EF0DFBE08BDDC1B0020E4
S214006C9008B5427901461046FFF7B4FFA8B1CB7895
S214006CA00A48013A042B00EB82100ED8012B08D8B4
S214006CB01BB9BDE808402EF0BDBEBDE808402EF06A
S214006CC0AFBEBDE808402EF0BFBE08BDDC1B0020EE
S214006CD010B586B00446FFF7E3F9012830D1E27814
S214006CE0042A2DD8DFE802F013323403030061795A
S214006CF00846FFF787FF58B31648032A00EB8110B3
S214006D0050F80C3C58791DD1003818BF0120637824
S214006D104FF480728DF804304FF48273ADF806306D
S214006D200623ADF8083001238DF80B3000238DF8CC
S214006D300A0001A8CDE903238DF81430FFF7E8F91F
S214006D4006B010BDB0FA80F04009E0E70020DEE7AC
S214006D500220DCE7DC1B002010B586B00446FFF7F7
S214006D609FF9012830D1E278042A2DD8DFE802F016
S214006D7013133203030061790846FFF743FF48B355
S214006D801548032A00EB811050F80C3C5B791DD1A6
S214006D901A1E18BF012263788DF80A208DF8043079
S214006DA04FF48273ADF806300623ADF808300123A1
S214006DB04FF480728DF80B30002301A8CDE9032331
S214006DC08DF81430FFF7A4F906B010BDB3FA83F2BD
S214006DD05209E0E70222DEE7DC1B002010B586B091
S214006DE00446FFF75DF9012812D16378094A8DF849
S214006DF004304FF48273ADF806304FF48073CDE95B
S214006E000223002301A804938DF81430FFF780F9BD
S214006E1006B010BD0800070110B586B00446FFF79F
S214006E203FF9012820D16278104B8DF804204FF4EA
S214006E30827294F8A01094F8A10059701870ADF8FA
S214006E40062004934FF480720223094901A88DF8A6
S214006E501430CDE90212FFF75BF994F8A130013B3C
S214006E6018BF012384F8A13006B010BDB65F00201D
S214006E700800050110B58378044603B30379022B96
S214006E800AD142791046FFF7BDFE28B10C48013AF8
S214006E9000EB82102EF0D8FDA379022B02D12046FB
S214006EA0FFF716FF2046FFF7B7FF02236078A4F827
S214006EB06C305522BDE8104012212EF003BC10BDE8
S214006EC0DC1B00204388094A0821138083885380EE
S214006ED083681B8A938090F8A03093718379D3716E
S214006EE000780430C0B2FEF751BF00BFAA58002099
S214006EF038B50D4604460178114813F0F5FE4FF6F6
S214006F0002739D420ED10F4B1B782BB9637120463E
S214006F10BDE83840FFF7D6BF62790AB19342F6D291
S214006F200123F3E7B5F57F4FF1D120462EF025FE7D
S214006F30A278A368022A0CBF012200229A70E6E714
S214006F40AF120400965F0020024B53F82000FFF7B4
S214006F50CFBF00BF6C33002038B504460078144D10
S214006F6004302A460821C0B2FEF700FF20B1BDE873
S214006F703840104813F0B8BE2B8863806B88E978D9
S214006F80A380AA88A3681A82AB7984F8A030EB792C
S214006F90A371094B1B780BB9637138BD09B19942CF
S214006FA0FBD9064813F0A0FE23780133F4E700BFB0
S214006FB0AA580020C9120400965F0020F2120400AE
S214006FC0F8B504460B78494A0D4642F8230043704C
S214006FD0FFF7C2FFA268464BD465D364454B022731
S214006FE05365454B0C2613654FF44013E3600123AD
S214006FF0A11C6161E1624149103221632265211DB5
S2140070003F4AA1633F484049626504F1A002A0617F
S214007010E163E265E01C611D3C4A206261643C4815
S2140070203C492266A21D2374237784F8283084F80E
S214007030343084F84030A16484F84C7084F85830BA
S21400704084F864306062A266E879AA6806FB00F1FC
S21400705004EB060E02EB010CCCF804E04FF0060E33
S214007060DFF8C0C042F801C0C118C9B2714342F887
S21400707001E002EB010C0021CCF80410DFF8A8C0F8
S21400708084F88030C4F870C084F89830DFF89CC06C
S214007090214BC4F878C0C4F89C30DFF894C0831C39
S2140070A0DBB2C4F87CC07343DFF888C084F8747021
S2140070B084F88C7004F16C07C4F884C0C4F890702F
S2140070C0DFF874C0154FC4F888C0C4F89470D71899
S2140070D070347C60124CD450C31CDBB27343082659
S2140070E0D4180430D6506160E871F8BD6C330020C7
S2140070F0D15A03001B5B0300756E000001FF3001D0
S21400710004FF20011000300102FF200105FF3001BE
S21400711000FF300103FF21013CAD04006F001800A2
S21400712012000104070001084A0021003AAD0400DD
S214007130510010003DAD04005500210000239B6A5D
S214007140B3F5804F03D21968064A914203D0002354
S214007150037083607047012202709A689B694260E0
S214007160F7E700BF07B0CD5E024B034A1A6030F067
S21400717064B900BF0000002002020FF073B53F4B59
S21400718004461A781AB102221A7002B070BDCDE910
S21400719000220028F9D001261E7039F0D3FA384DA7
S2140071A0384B186018F04AFC2B785BB902F00EFCDE
S2140071B040B935480823354A3549006802F04EF88C
S2140071C000B92E70334B5A68E260334A9A601A6EE2
S2140071D022605A6E6260D3F87021A2601B6E5C0457
S2140071E02CD52E4AD368D807FCD42D4B1A68531CCE
S2140071F029D04FF4801393402A4A13660423294C5F
S2140072004FF0804223664FF4806323661023236684
S2140072104FF400536846236601A9226663662EF083
S214007220C4FC009B2366019B63662B78002BACD0C6
S214007230164B1A6822665B686366A6E71A4AD36826
S214007240D907FCD4D1E7194B1B78002BD6D1184BA5
S2140072505A68144B12B94FF480121A66154A5268CF
S21400726012B94FF400121A66134B5B68002BC5D197
S2140072704FF480020B4B1A66C0E700BFB95F0020D0
S214007280BA5F0020A4330020246A0020A833002020
S214007290007108000080004455CEAC000000044099
S2140072A0F06900200090004400000450B85F002001
S2140072B00080055000C005500000065038B5224D2D
S2140072C004462B78012B02D001232B7038BD0028F2
S2140072D0FCD02EF08FFC013009D02EF08BFC40F253
S2140072E00113984203D0194AD368DB07FCD42268FE
S2140072F0174B1A6662685A66A268C3F87021E2687D
S214007300D40744BF00229A60124B1A68013213D188
S214007310114A127882B911494968C80748BF1A60ED
S2140073200F4A5268D10744BF01221A600D4A5268BC
S214007330D20744BF02221A6018F088FB0A4B18686E
S21400734039F0FBF90023C0E7B95F002000000440D5
S21400735000800044F0690020B85F002000800550DF
S21400736000C0055000000650A433002070B500246D
S214007370A36AB3F5804F23D21A68134B9A421FD1E3
S214007380124E337813F0FD0518D14FF480341048B0
S214007390FFF7F4FE032005F027F80E4B0320DC6011
S2140073A005F006F80C4B1C61AB6ADB69984704468F
S2140073B00748FFF783FF0CB901233370204670BDE2
S2140073C04FF48174FAE700BF07B0CD5EB85F0020C7
S2140073D09433002000A000440090004413B5204BD6
S2140073E01B7803B9FEE700231E4CCDE900336A463E
S2140073F008231D49206801F031FFF8B91B4AD2F86E
S2140074004031D2F840211F2B4FF0010311D9203A0A
S2140074109340019A1A43019208236A46124920684B
S21400742002F0A8F8124B134A1A6030F006F802B0C1
S21400743010BD9340009A1A430092EDE72D28F1D133
S2140074400A4AD2F84031D2F840211F2B4FF00103F0
S21400745085BF203A93409340019398BF0093DBE7A3
S214007460B95F0020246A00200071080000800044F4
S214007470000000200B020FF038B50025AB6A04466A
S214007480B3F5804F10D21B6BB3F5804F0CD2074874
S214007490FFF774FEAB6A20461B6B5B689847BDE837
S2140074A038400248FFF70ABF38BD00BFB03300209F
S2140074B013B50024A36A0190B3F5804F13D21B6B5B
S2140074C0B3F5804F0FD20948FFF758FEA36A012193
S2140074D01B6B01A89B69984704460448FFF7EEFE1D
S2140074E0204602B010BD4FF48174F9E7B033002097
S2140074F070B50026B36A0446B3F5804F0D4612D227
S2140075001B6BB3F5804F0ED20848FFF737FEB36A01
S21400751020461B6B29469B69984704460348FFF79D
S214007520CDFE204670BD4FF48174FAE7B0330020DC
S21400753070B50026B36A0446B3F5804F0D4612D2E6
S2140075401B6BB3F5804F0ED20848FFF717FEB36AE1
S21400755020461B6B2946DB69984704460348FFF71D
S214007560ADFE204670BD4FF48174FAE7B0330020BC
S214007570F8B50027BB6A0446B3F5804F0D4616469D
S21400758011D21B6B7BB10948FFF7F8FDBB6A20469A
S2140075901B6B324629465B6A984704460348FFF74A
S2140075A08DFE2046F8BD4FF40174FAE7B033002094
S2140075B070B50026B36A0446B3F5804F0D4612D266
S2140075C01B6BB3F5804F0ED20848FFF7D7FDB36AA2
S2140075D020461B6B29469B6A984704460348FFF7DC
S2140075E06DFE204670BD4FF40174FAE7B0330020FC
S2140075F0F0B50027BB6A0446B3F5804F0D46164625
S214007600ADF5337D20D21B6BB3F5804F1CD21048EE
S214007610FFF7B4FDBB6A20461B6B40F2C1225B6AD3
S21400762001A99847044630B10948FFF747FE2046AF
S2140076300DF5337DF0BD836A32461B6B2946DB6A47
S21400764001A898470446EFE74FF40174EFE700BF40
S214007650B033002010B50024A36AB3F5804F10D2D3
S2140076601B6BB3F5804F0CD20748FFF787FDA36A64
S2140076701B6B1B6B984704460348FFF71FFE20460C
S21400768010BD0124FBE700BFB0330020F0B58FB07B
S214007690044601A80E461546FFF7EEFE9DF80C3090
S2140076A0012B12D1B5F5402F27D8B4F5402F24D89A
S2140076B06319B3F5402F20D821462A46304614F0E9
S2140076C00BFF002420460FB0F0BD0027BB6AB3F5C1
S2140076D0804F15D21B6BB3F5804F11D20A48FFF7C7
S2140076E04DFDBB6A2A461B6B314620465B6B9847AE
S2140076F004460548FFF7E2FDE4E740F20244E1E70E
S21400770040F20114DEE700BFB0330020F0B58FB0C2
S214007710044601A80E461546FFF7AEFE9DF80C304F
S214007720012B1FD1B5F5402F06D8B4F5402F03D84E
S2140077306319B3F5402F13D940F2024420460FB028
S214007740F0BDE258013225D104339D42F9D82A46CD
S214007750314620462EF07EFA0028EDD00024EDE7D4
S2140077600023F2E70027BB6AB3F5804F15D21B6BE8
S214007770B3F5804F11D20A48FFF700FDBB6A2A46D0
S2140077801B6B314620469B6B984704460448FFF720
S21400779095FDD3E740F20344D0E740F20114CDE76D
S2140077A0B033002070B58EB0044601A80D46FFF732
S2140077B063FE9DF80C30012B22D144EA0503C3F387
S2140077C00C03002B33D1B5F5402F04D940F2024408
S2140077D020460EB070BDB4F5402FF7D82544B5F559
S2140077E0402FF3D8204604F500542EF02CFAAC4275
S2140077F002D00028F6D1E9E70028E7D00024E7E722
S2140078000026B36AB3F5804F14D21B6BB3F5804FD6
S21400781010D20A48FFF7B2FCB36A29461B6B204613
S214007820DB6B984704460548FFF748FDD0E740F273
S2140078300444CDE740F20114CAE700BFB03300208D
S214007840BFF34F8F0549064BCA6802F4E062134344
S214007850CB60BFF34F8F00BFFDE700BF00ED00E039
S2140078600400FA0570B5D0B1C9B10E4E431E0139F9
S21400787013F8014F2046325D02F00302012A11F888
S214007880012F08BF04F12000B55C05F00305012DAB
S21400789008BF2032801A01D1002CE9D170BD01202A
S2140078A0FCE700BFEDD504000348044A0449121A59
S2140078B092102EF02ABA00BF34410000D0420000D9
S2140078C02067002008B5154B83F30A8800F030F8CF
S2140078D0FFF7EAFF124B13498B4212D30020124BDC
S2140078E012498B4218D3FDF7F9F9186850F8224070
S2140078F0586840F82240013298688242F5D30C332B
S214007900EAE70022F8E71C6844F8220001325C68C7
S214007910A242F8D30833E4E70022F8E70800002084
S214007920ACFA0400B8FA0400B8FA0400B8FA040086
S214007930124B134A70B59A60D3F88820114D42F462
S2140079407002C3F888206FF0010205F50054226625
S21400795041F2FF7262660222C3F8D020BFF34F8F57
S214007960BFF36F8F4FF44036032004F03DFD032035
S214007970E66004F01DFD2E6170BD00BF00ED00E066
S2140079800040000000800044014B1860704700BFB4
S214007990F8690020054B1860054B1B6F03F00703C2
S2140079A0032B01D136F008BF704700BF006A0020E5
S2140079B0008000502DE9F04104464FF001080C25E8
S2140079C00D4E0CB9BDE8F08194FAA4F0B0FA80F040
S2140079D00F2808FA00F2C8BF103824EA0204CABF0B
S2140079E005FB006205FB0062B4325768002FE8D042
S2140079F09168C0B2B847E4E7C033002008B50C4829
S214007A0038F03EFF192004F0E1FC28B1192004F0FC
S214007A10EBFC192004F0CCFC1A2004F0D7FC28B1AB
S214007A201A2004F0E1FC1A2004F0C2FC002008BD75
S214007A30A4AF04002DE9F0410E461746054618B3DC
S214007A400F2923D80378DBB1013BDBB2022B19D810
S214007A50104AD35C6A78D340DB0717D50E4BD3F8B1
S214007A601043ACB938F06EFE80463A46284631469A
S214007A7003F028FA404638F060FE2046BDE8F08164
S214007A807F23E7E70023E5E72224F6E72124F4E74F
S214007A900224F2E790AD040000C0035010B504467F
S214007AA010B30378E3B1013BDBB2022B1AD8104ABD
S214007AB0D35C6278D340DB0718D538F043FE01224A
S214007AC0617823788A4030214B4341F2100103F15C
S214007AD0A04303F570335A5038F02FFE002010BD37
S214007AE07F23E6E70023E4E72220F8E72120F6E7F5
S214007AF090AD040010B5044610B30378E3B1013B23
S214007B00DBB2022B1AD8104AD35C6278D340DB076C
S214007B1018D538F017FE0122617823788A40302184
S214007B204B4342F2100103F1A04303F570335A5061
S214007B3038F003FE002010BD7F23E6E70023E4E7CD
S214007B402220F8E72120F6E790AD040038B50D4670
S214007B50044618B311B30378E3B1013BDBB2022B42
S214007B601AD8104AD35C6278D340DB0718D538F0B1
S214007B70E9FD30222378534303F1A04303F5703325
S214007B805B696278D34003F001032B7038F0D5FDB3
S214007B90002038BD7F23E6E70023E4E72220F8E74D
S214007BA02120F6E790AD04002DE9F0410D4616467B
S214007BB01F46044600284DD000294BD001780029E6
S214007BC03ED04B1EDBB2022B3CD8244AD25C6378F4
S214007BD0DA40D00701D4FF293ED1022E01D9042E67
S214007BE03AD138F0AFFD23788046FF2B05D03246D9
S214007BF02046296803F0ACF928602868421C0BD19F
S214007C002378FF2B20D1164B6078D3F824142EF05F
S214007C1084FE431C286017D00C22124B02FB003354
S214007C20069A5F609A602378FF2B04D001230E4AE1
S214007C308340C2F82434404638F07FFD002007E039
S214007C407F22C4E70022C2E7404638F076FD2D20AA
S214007C50BDE8F0812220FBE72120F9E790AD040083
S214007C6000C00350C033002000D0035008B503F016
S214007C701FF9044B00F05530C3F82004BDE8084057
S214007C80FFF798BE00E0035008B503F011F9044B67
S214007C9000F0AA30C3F82004BDE80840FFF78ABE0B
S214007CA000E003502DE9F04F9A46554B85B01B78FF
S214007CB006460F461546DDF83C909DF844B0DDF8C4
S214007CC05080002B00F08C80072A00F28B800E9BE1
S214007CD0002B00F08780B9F1000F00F08380129B24
S214007CE0B3F5006F7EDC012802D1109B002B79D003
S214007CF0444B03EB05131B7B002B75D0424C102224
S214007D000021684614F04AFA04EB45141022002FAE
S214007D1058D13946204614F041FA43F210036380E6
S214007D20BBF1000F03D1E37843F00303E370364A58
S214007D300E9B02EB451CCCE90193129B6901581E71
S214007D409DF84C30C0F30A0003F003039B0643EA99
S214007D50001E53582D48012E00EA03004EEA000389
S214007D60CDF800A0535041D113230CF1100ECCF8DF
S214007D700C309CE80F008EE80F006FF00301DCF873
S214007D801C20109B61F39F02012FCCF81C20CCF81E
S214007D90143003D1CCF81890CCF804300027194AD8
S214007DA0290102EB051342F80180159A28465A600D
S214007DB0694622469F605E7302F056FE384605B05E
S214007DC0BDE8F08F0021204614F0E8F94FF4447324
S214007DD06380BBF1000FAAD1E37843F03003A5E738
S214007DE00B48ECE70B48EAE70B48E8E7B8F1000F6A
S214007DF0D4D19CF8023068F304138CF80230CDE737
S214007E00BB5F002028360020283500200F80FFF3B7
S214007E10028000F0018000F0078000F038B5124BB9
S214007E2005461B78DBB1E0B138F08CFC0F4A002326
S214007E301146147B54B92B6001251A0101EB03137C
S214007E401D738C5038F079FC204638BD0133082B62
S214007E5002F11002EDD138F070FC0548F5E7054850
S214007E60F3E70548F1E700BFBB5F00202836002097
S214007E70048000F0028000F0018000F038B538F091
S214007E8061FC002305460B4A147B6CB90133082BB2
S214007E9002F11002F8D102F0A3FD074B28461C7031
S214007EA038F04BFC204603E0284638F046FC0348F2
S214007EB038BD00BF28360020BB5F0020058000F0DC
S214007EC00D4B10B51B78044693B1072812D838F02E
S214007ED039FC0A4B03EB04131A7B2AB100241C73EB
S214007EE038F02BFC204610BD38F027FC0448FAE793
S214007EF00448F8E70448F6E7BB5F00202836002071
S214007F00068000F0028000F0018000F0154B13B5EB
S214007F101868002301908DF8043038F013FC124BDB
S214007F201C7824B138F009FC104802B010BD0122BC
S214007F301A7038F002FC0E4B01A81C731C7783F8ED
S214007F402C4083F83C4083F84C4083F85C4083F830
S214007F506C4083F87C4008238DF8073002F05CFD07
S214007F602046E2E793AD0400BB5F0020038000F0EC
S214007F7028360020F8B50D4D2D7885B1072810DC81
S214007F800B4D060105EB0014277B67B1AB510025AE
S214007F90069BA560636002F067FD2846F8BD0548AD
S214007FA0FCE70548FAE70548F8E700BFBB5F002096
S214007FB028360020028000F0018000F0078000F0E4
S214007FC00A4A08B512785AB107280BD8084A02EBB5
S214007FD000131B7B43B1002102F010FD002008BDFA
S214007FE00448FCE70448FAE70448F8E7BB5F0020CB
S214007FF028360020028000F0018000F0078000F0A4
S2140080000A4A08B512785AB107280BD8084A02EB74
S21400801000131B7B43B1012102F0F0FC002008BDD9
S2140080200448FCE70448FAE70448F8E7BB5F00208A
S21400803028360020028000F0018000F0078000F063
S214008040184B2DE9F0411F6D5B6D1F4000D5FEE714
S21400805001260025144CDFF85880374218D02368D4
S214008060C8F85060A3B1A168284601316268A160D3
S2140080709847637B012B0BD150B90C4B03EB451390
S2140080801A7B60F341021A731A7F60F341021A7773
S2140080900135082D4FEA460604F11004DDD1BDE88F
S2140080A0F08100BF0000045028360020283500204C
S2140080B0002004502DE9F04F144606460F4689B0BE
S2140080C00393C36B01225B6904A960689847F36B4E
S2140080D001225B6905A93846984704A82EF02EFAB7
S2140080E0054650B10023A37563754FF0FF33A360B8
S2140080F00025284609B0BDE8F08F05A82EF02BFA1B
S2140081000123A375237E04EBC303DF611D8463682C
S214008110BB420ED1206005A82EF03EFA4FF0FF338A
S2140081202075A360237D043B022B26D80023A3756D
S214008130DEE723681A1A53425341A37505A82EF0AA
S2140081402BFA237D834218BFA57505A82EF007FAE3
S214008150804604A82EF003FA804518BF002305A821
S21400816018BFA3752EF002FA804604A82EF0FEF97A
S21400817080451CBF0023A375D4E705A82EF0EFF9B1
S21400818080B1F36B022238465B6906A9984706A8B9
S2140081902EF0F3F90346207D032839D8DFE800F0F7
S2140081A03838040905A8F3E7CC22237E04EBC30382
S2140081B01A8401F083FC129B187005A894F81880A6
S2140081C02EF0C1F904EBC80888F82200237E05A823
S2140081D004EBC303B3F820A093F822802EF0BFF977
S2140081E0814605A82EF0C2F98346B9F1000F14D0D7
S2140081F0F36B022238465B6906A9984706A82EF05C
S21400820082F9607568B90023A3754FF000093CE059
S214008210227E04EBC2021384CBE705A82EF05EF99B
S214008220EFE794F81690B9F1000FEED0BAF1000F10
S2140082300DD1B8F1000F1DD00123E375637E002B2E
S2140082403FD1B8F1010F30D184F8198014E0736C77
S21400825007EB0B015A4287EA010010421CBF0022BE
S214008260A2755A1E0A409B1A9A45CCD8A37D002BAD
S214008270DFD1CAE7E37D43B94FF0000953465A46BB
S214008280394630462DF0A5FEA060A37D13B12269C5
S214008290524422611F49227E097891421AD901323E
S2140082A02276039ACAB91D4623E796F834307BB97E
S2140082B0F36A0133E2D1B8F1030FDFD10123A376CD
S2140082C0DAE7B8F1010FE0D0B8F1030FD4D1F5E743
S2140082D09946D3E70023A3750BE7002B3FF409AFBD
S2140082E0E57D002DDFD0B9F1000F11D1B8F1030FF5
S2140082F03FF4FFAEA1684B1C3FF4FBAE129B224638
S214008300009330460123FFF7D5FE0546A075F0E63C
S2140083104D46EEE6B8AD04002DE9F04F0E46984601
S21400832000238BB004464FF0FF31104617468DF8F9
S214008330133001F0ADFBB6F5801F20D2314605AAFA
S21400834004F108002EF04CF8451C014603D1237CAE
S214008350BBB92D2010E0384601F09AFB01223946C1
S21400836020460DF113032DF086FE0028EFD09DF871
S214008370133088F8003000200BB0BDE8F08FB01C3A
S214008380E5D1E56A691C36D12046616A2DF067FDA5
S2140083900546B31C18BF0123DFF8CC900193636A2F
S2140083A0626C0293236805A902FB053AE36B05227B
S2140083B05B695046984705A82EF05AF92EF07DF9CD
S2140083C050462EF085F94FF0000B824601464B1CB6
S2140083D005D0636C81EA0A025B42134211D029463B
S2140083E020462DF03CFD029BAB422CD0BBF1000F8B
S2140083F02CD10546D3E72368ED1A636CB5FBF3F57D
S214008400C7E7484601F044FB0DF1130349462046F2
S214008410019A2DF030FE034690B1B21C03D0D9F875
S2140084200020B2420CD19DF8132003930D4B88F820
S214008430002049461A68384614F04EF8039B9B46BF
S214008440D9F80810C3E7BBF1000F82D0B6F5801F3D
S21400845091D2314698F800307A6804F1080001F0AD
S21400846045FA88E7B4AD04001C3D00202DE9F34131
S2140084700446174698460E46184D816AE36A8B42B4
S21400848001D04B1C02D102B0BDE8F081284601F0B5
S214008490FFFA0122294620460DF107032DF0EBFDD9
S2140084A038B14346294620469DF80720B84700289D
S2140084B0E9D0A9684A1C04D1696820462DF05CFD05
S2140084C00146012EDAD16B6881EA0302636C5B42D7
S2140084D01A4218BF4FF0FF31D0E700BFF03C002033
S2140084E02DE9F04F4FF0FF334FF6FF72002504469C
S2140084F000F108068BB0C0E90923C3620562056374
S214008500304688462DF03DFF20462DF078FC60BBB7
S214008510204641462DF0F3FC20462DF070FC60BB53
S2140085205E200BB0BDE8F08F2368E26B606C576985
S21400853000FB0530052205A9B84705A82EF098F8D7
S214008540012807460CD1294620462DF0A9FC012F0C
S214008550024600D10132294620462DF06FFC03E08A
S2140085602EF0B0F80028EED10135E3699D42DBD34A
S21400857020462DF044FC0028CAD000254FF0FF39D5
S2140085804FF6FF73CA46A846C4E90853E369984500
S2140085900AD3A5EB0905012D2CD84FF6FF72636AA6
S2140085A093423CD16720BCE72368E26B606C576956
S2140085B000FB0830052205A9B84705A82EF058F894
S2140085C0834605A82EF02BF8074658462EF075F879
S2140085D068B1574538BFC4F82480B94528BFB946A6
S2140085E0BD4238BF3D46BA46236A0133236208F1CE
S2140085F00108CBE74FF6FF7300256362E3699D42EF
S214008600CBD2676C2068E36B052207FB05005B692D
S21400861005A9984705A82EF002F80135EEE7E26BAB
S214008620676C2068694607FB030055690522A84762
S21400863068462DF0F4FF626A2368606C4B4D00FBC1
S21400864002302EF045F84FF0FF33A062E3622A4670
S2140086506FF00101204605ABFFF75EFE002846D10D
S214008660AD6829462046E5622DF0A5FB206320B9BB
S2140086702046E16A2DF080FCE062294620462DF077
S2140086807BFC0546A36A9D4233D120462DF066FB4F
S21400869000278046B946E36999453CD3B84559D981
S2140086A02046616A2DF0DBFB0026054604F1400AF1
S2140086B0B74212D8626C2368694602FB0539E36B41
S2140086C005225B694846984768462DF0A8FF534642
S2140086D002464946E06B2DF0FDFF294620462DF068
S2140086E0BEFB0136B0450546E2D1642019E7A56A0F
S2140086F0B7E7294620462DF05EFB236B2946034448
S2140087000746236320462DF037FC0546002FB9D1D7
S214008710C4E90B07B6E7636C2568052203FB095519
S214008720E36B05A95B692846984705A82DF0A0FFCE
S2140087302DF0C3FF58B128462DF0CAFF014620464B
S2140087402DF039FB636C143B984208BF013709F1E2
S2140087500109A0E730462DF014FE002320461946F6
S214008760034AFFF783FE0020DBE600BF483D0020FB
S214008770656003002DE9F041036B9046826B90B074
S2140087809A4288BF8363426C436A07680E4602FBC0
S2140087900377C36B01A905225B69044638469847F0
S2140087A001A82DF065FF01280146307057D0656C92
S2140087B0E26B2368606AD2F814C005FB003005221D
S2140087C006A9E04706A82DF053FF01284FF0000544
S2140087D023D0D4E90A3201219342CDE90B458DF826
S2140087E034800E958DF83C102AD1194620462DF07F
S2140087F0C3FB236B626C14339B1AE06223630C9BEF
S21400880053B99DF83C303BB1626A616C2368E06BFB
S21400881001FB02312DF0E4FE0C9DE36B05225B6943
S21400882001A93846984701A82DF022FF3070284647
S214008830236BA26B9A4288BFA36310B0BDE8F08199
S214008840237C33B91C490BAA04F1080001F09CF8FC
S214008850D5E72046194A0BABFFF708FECFE7237C87
S21400886023BB2246164904F1080001F08DF8616A20
S21400887020462DF015FB616A421C20462DF0DEFADC
S214008880054620B9236B626C1344143B23632046D1
S214008890A16A2DF071FB2368A062C01A636CB0FB5E
S2140088A0F3F0606220462DF0AAFBB6E700232046D0
S2140088B0044AFFF7DBFDDAE719900000958F000009
S2140088C0FF6003009B60030073B50D46D11E4A424D
S2140088D01C461B7E4A419A4226D129682368994243
S2140088E022D3636899421FD8114E0DF10703324612
S2140088F0FFF712FDC0B972686B689A4214D19DF8F2
S2140089000730DA1E53425341227E93420CD16369EC
S21400891001336361D4E90323934205D22968A26830
S21400892042F8231001332361012002B070BD00BF5E
S214008930483D00202DE9F04F9A468BB09DF8503008
S214008940DFF850B10293DBF81030804653450D46F1
S2140089501646C0F09880D146DBF804300193B9F192
S214008960000F00F08C80D8F83C3001225B6907A924
S2140089700198984707A82DF0EEFDDBF800309842E6
S21400898040F0848007A82DF0F1FD0428074614D196
S21400899007A82DF0F2FD019B029A04463B44002AEC
S2140089A03ED1864212D91446361A404601992DF019
S2140089B0E3FAA9EB04090190D1E7D8F83C3002228B
S2140089C05B69019808A9984708A8E2E7841B544504
S2140089D028BF5446032C03EB0607AAEB040A1DD94E
S2140089E0D8F83C30294638465B69A208984724F0F8
S2140089F0030304F003061F441D44002ED5D0D8F808
S214008A003C3001225B6908A938469847324628461A
S214008A1008A9354413F060FD0026C6E72646ECE7B5
S214008A20074600F00302039203442A1804920593B3
S214008A30049BDD1B059BD81B039B9F420FD1002F79
S214008A40B3D0D8F83C30012208A95B6998473A466B
S214008A50284608A913F0F4FB78B93D44A5E7D8F8F2
S214008A603C30012208A95B6998470422284608A9D9
S214008A7013F0E6FB08B9043FDAE74FF0360948463C
S214008A800BB0BDE8F08F4FF06309F8E74FF06F09C1
S214008A90F5E700BF743D00202DE9F0410F4616466D
S214008AA09846044688B060B390F83450FDB1012172
S214008AB02DF09AF900210E9BCDE90511CDE902377C
S214008AC09DF83C30CDF804808DF81C30237C04964D
S214008AD08BB90D4901AA04F1080000F055FFDDE945
S214008AE00553E06B002E08BF1D462DF016FB2846EA
S214008AF008B0BDE8F0812046044A01ABFFF7B6FC9B
S214008B00EDE70546F3E700BFC9600300C98800002B
S214008B107FB590F84260044601920DF10B030A46B9
S214008B20304611492DF001FB012E0546E36B17D1A7
S214008B3032465B6903A998479DF80B10039B019A80
S214008B4059B19BB243EA0243012228460393E36BE2
S214008B5003A99B69984704B070BD62F30F03F3E75F
S214008B6001229B6901A9F5E7743D00202DE9F04F2D
S214008B7099B0CDE90B230E460A69416CD31D143912
S214008B80B3FBF1F3013302EBC302036B04469342DB
S214008B90C0F0FB810023DFF8F8930A93E36A4846A7
S214008BA01946079300F074FFD6E9033705930C9B2C
S214008BB0022B1CD1CC2F40F074810B9B8BB131461D
S214008BC020462DF008FB656C14900B9B63B1E36B9D
S214008BD001225B69706816A9984716A82DF0BFFC9D
S214008BE00CE0059B1B68149308230E930DE0782F6A
S214008BF0656CEAD80B9B002BE9D1F07D00280CBFF2
S214008C0004230823782F0E9328D9012300250893E0
S214008C1008230393336808990C98C9F80030C9F8FC
S214008C2010702DF0BDFC00230F930D93069309934F
S214008C30039BDDF81CA09B0889F814001193616C57
S214008C4003984A1E0AEA02028B1AEFB10544AB42A9
S214008C501CD8236B5B1A1344236386E0079A6B1EAB
S214008C601340EB1A3A1D934207D257B1082BCCD8C3
S214008C700023042508930395CCE7002504230895D4
S214008C80C7E704250897F6E78342E2D3039AB84677
S214008C909B1A9F4228BF984652449F42049278D916
S214008CA00123D9F8102089F81730974276D1C9F8F1
S214008CB004A0069399F81730002B71D099F8182065
S214008CC00699D31C09EBC3030132C3F804A0A3F82A
S214008CD00880997289F81820B8F1000F14D00C9B00
S214008CE0022B60D10F9B7BB90D9B4344032B0BD902
S214008CF0E36B01229B69049814A99847054600284F
S214008D0040F0D58001230F93069B16A80193089B7D
S214008D10009399F814204346316800F06FFEE36B29
S214008D2050469B69119A16A99847051E0A9B18BFBC
S214008D305346039A0A935146434620462DF049F976
S214008D40236B039AC9F808009B1A08F1030222F065
S214008D5003029B1A2363002D40F0A9800D9BDDF8CB
S214008D6010A04344A7EB08070D93514620462DF06C
S214008D7003F900258246002F7FF461AF844A3168EC
S214008D80936804F10800E36252680C9B00F0AEFDA5
S214008D9089E0069B002B18BF03238AE7022388E797
S214008DA0C9F804A098E70B9B002B30D1059BB8F1BF
S214008DB0030F03EB080B27D9DDE90401E36B4FEA49
S214008DC098029B6998470546002864D118F003026C
S214008DD05ED0059B28F003052B440593049B1D4499
S214008DE04FF0FF33059915A8159313F075FBE36B49
S214008DF0284601229B6915A998470546CDF814B068
S214008E00002D81D0049B94E74246049DE8E706F1D6
S214008E102003DDF810B01093F37D70689BB100233B
S214008E20357E099AD9B28D4211D9109903F1010CF9
S214008E3031F83310914225D90E9906EBC303D86951
S214008E400A44104403E00E9B099A13441844E36B4B
S214008E5001225B6915A99847159B01221393099B6C
S214008E60584604330993E36B13A99B699847049B00
S214008E7005464344A3EB0B03042B06D970B90BF14C
S214008E80040BC9E76346521ACCE7CDF810B0B7E733
S214008E90CDF814B038E7CDF814B0B3E7CDF810B07D
S214008EA0B0E770252F46384619B0BDE8F08F3D2D47
S214008EB0F8D104F1080303932368079A606CA2EBC9
S214008EC0030ABAFBF0FA00FB0A302DF001FCE16A57
S214008ED0804620462DF050F8A36A216B8342626CD0
S214008EE045D0D9F80830571E3B40891A0B442768EE
S214008EF023630A9BE062DF1BB7FBF2F7BA4533D168
S214008F00079BB3EB080A12D0E36B4FEA9A0241467E
S214008F109B6998478346E36A079A5344E362236B48
S214008F2003989B1A434423632DF02BFADA462368F2
S214008F30616CE06B01FB07312DF03FFB20462CF007
S214008F405EFF20462DF05BF83269616CD31D143944
S214008F50B3FBF1F30133206302EBC302BAF1000F57
S214008F6005D09042A8D29DE74FF0000ADFE73269AD
S214008F70616CD31D1439B3FBF1F3013302EBC3026A
S214008F80236B9342BFF40AAE8CE71C278BE700BF27
S214008F901C3D0020032A2DE9F34106460D461746E0
S214008FA01C4606D1237A012B23D0012002B0BDE84F
S214008FB0F081DFF86080096842460DF10703FFF78D
S214008FC0ABF960600028EDD19DF80730032BE9D09F
S214008FD0D8F804206B689A42E4D1237A2969012BD9
S214008FE0D4F80CC007D172690CEB0103934202D986
S214008FF02074207CDAE708316144E1603B460122B8
S21400900029463046FFF7B2FD60600028CAD000202F
S214009010CCE700BF483D00202DE9F341032A174660
S214009020089C06D1237A012B25D0012002B0BDE88A
S214009030F0812668DFF89080304642460DF107033F
S214009040FFF76AF960600028ECD12568D8F80400BC
S214009050A96A6A6C4840534210EA030CE2D1237AAC
S214009060012B0AD1E068D8F81030034470698342B7
S21400907003D984F810C0207CD8E72868EB6A1B1A4E
S214009080081AB3FBF2F3B0FBF2F083420BD1706C1C
S214009090F36A421E1340326B121A13442846336397
S2140090A02CF06AFFE862D8F81020E3680832134410
S2140090B0E36001223B4604492068FFF757FD6060E5
S2140090C00028AFD00020B1E7483D00202DE9F04150
S2140090D00025604B0E46D3F8008004461D6018B984
S2140090E021252846BDE8F08190F8347007B30A6859
S2140090F003689A4240F0A4804A6843689A4240F067
S2140091009F808A6883689A4240F09A80CA68C368DB
S2140091109A4240F095800A6943699A4240F09080EE
S2140091208A69C36B9A4240F08B804B698361D8E7AB
S21400913068223946856B13F031F8D6E90212336897
S21400914004F1080023607368A56363603369636194
S2140091507369A3612DF027F9B36904F14000E36356
S2140091609B68984720B9676C17B16368B3FBF7F73D
S21400917094F84330E761002BB2D00023656C236679
S214009180002D65D0002F63D02368B3FBF5F205FBF6
S2140091901233002B56D16668B6FBF5F305FB136356
S2140091A0002B4FD120462CF0F6FDA3690433034470
S2140091B09E4249D340F634726369CC3B934245D80D
S2140091C0B5F5805F44D3032120462CF00DFED4E98C
S2140091D00001E36B1B6898470546E36B0220DB68DB
S2140091E09847D5B941462046FFF77AF964280546E0
S2140091F004D141462046FFF773F905466DB9636C06
S214009200226A143B204602FB03F62CF0C4FDA36939
S214009210043303449E4238BF5A25002D0CBF012359
S214009220002384F8343007D1D4E900010A4A1368D1
S214009230013313602DF051F9E06B2CF06EFF50E710
S2140092405D254EE759254CE75A254AE75F2548E74E
S2140092505B2546E7AC360020A83600202DE9FF4106
S2140092600C4616461F46054688B390F8343083B33E
S214009270B1F5801F2FD2DFF8648001212CF0B4FDF9
S2140092804246214628460DF10F03FFF745F80246F1
S214009290C8B99DF80F30012B10D1D8F81030BB425A
S2140092A013D1009031462846FFF744FB0446E86B8E
S2140092B02CF033FF204604B0BDE8F081022B0CBF33
S2140092C060242D24F3E72D24F1E76324EFE721241F
S2140092D0F0E71124EEE72924ECE700BF743D0020F8
S2140092E02DE9F04385B00E4617461C460546DDF8C8
S2140092F03080A0B390F834309BB3B1F5801F32D2E3
S214009300DFF8689001212CF06FFD4A46314628466A
S2140093100DF10F03FFF700F8E8B99DF80F30012BA9
S21400932014D1D9F8102004EB08039A4215D322462C
S2140093300090434639462846FFF7FCFA0446E86B99
S2140093402CF0EBFE204605B0BDE8F083022B0CBFE8
S21400935060242D24F3E72D24F1E76324EFE721248E
S214009360F0E71124EEE72924ECE700BF743D002067
S21400937073B50C461646054630B390F834302BB31A
S214009380B1F5801F24D201212CF02EFD214628465F
S214009390104A0DF10703FEF7BFFF044680B99DF89B
S2140093A00730032B0CD0022B0CD1284609492CF091
S2140093B012FF3060E86B2CF0B0FE204602B070BDA5
S2140093C02D24F7E76124F5E72124F6E71124F4E7D6
S2140093D02924F2E7743D00202DE9F3411E460023C0
S2140093E00C4617460546336050B390F834304BB3FE
S2140093F0B1F5801F28D2DFF8548001212CF0F4FC50
S2140094002146424628460DF10703FEF785FF04462F
S214009410A0B99DF80730032B10D0022B03BF012301
S2140094203B600423D8F8103018BF38603360E86B10
S2140094302CF073FE204602B0BDE8F0812D24F6E73E
S2140094402124F7E71124F5E72924F3E7743D0020EB
S21400945073B50446056B2CF09EFC636E03449D4278
S2140094602CBF00230123854294BF00252D1A207CA3
S21400947084F85030656584F85800A8B100230C4E77
S2140094801A461946204600962CF069FF002305462A
S2140094901A461946204600962CF06AFFE3682844D0
S2140094A0984294BF0020C01AE06502B070BD00BFAD
S2140094B0FFFF0F002DE9F3471E4643690446B342FB
S2140094C0884617469DF828904ED300258DF80750FD
S2140094D020462CF060FCD4F830A082450AD2236ADD
S2140094E0B5EB430F06D2002220460DF10701FFF729
S2140094F041F9B8B39DF80730012B05D1002220466C
S2140095000DF10701FFF736F9B9F1030F06D0314622
S21400951020462CF030FC256B854227D3144D4FF0A7
S214009520FF31284600F0B4FA4B4629460022204672
S214009530C5E90376C5F80080FFF718FB236E0546DD
S21400954063B12046FFF784FF94F8503013B994F8BF
S21400955058301BB1236E04F150009847284602B0DD
S214009560BDE8F0870135B3E76225F7E71C25F5E788
S214009570483D00202DE9FF410F4690461E46054611
S21400958098B390F8343093B3B1F5801F31D21A4CAB
S21400959002212CF029FC2246394628460DF10F03FD
S2140095A0FEF7BAFE024678B10123424600933946DA
S2140095B033462846FFF77EFF0446E86B2CF0ADFDE9
S2140095C0204604B0BDE8F0819DF80F30012BEBD1AA
S2140095D02169B142E8D10093414633462846FFF759
S2140095E0A9F904460028DFD1E7E72124E8E711249B
S2140095F0E6E72924E4E700BF743D00202DE9F043A8
S21400960090F8423087B0012B05460391A1EB020883
S21400961040F0B080B8F1FF0F01D81F4600E00327E6
S2140096206426002445E00127012B4FF03206F8D0CF
S214009630002432223FE0284605AB224650492CF053
S214009640A8FD95F842300598012B3FD14FF6FF72E2
S21400965090422BD1264664225FFA84F9921BBA42C6
S21400966018D3012F4BD10022012BCDF814808DF892
S214009670132038D1082205A90DF113002DF044F867
S2140096809DF81330059A42EA032231462846FFF732
S2140096903FFA40B102233A4900932846CC23096892
S2140096A003AAFFF707FF07B0BDE8F083C0B258B1C2
S2140096B00134012364229442BDD3012B14BF32220D
S2140096C064225FFA86F9C9E70334F2E7421C04D144
S2140096D0264632225FFA84F9C0E780B208B1013428
S2140096E0A7E70234A5E7102205A90DF113002DF017
S2140096F00BF89DF81330059A42EA0342C5E7039A31
S214009700012B059225D10823202205A90DF113006F
S2140097108DF813302CF0F8FF9DF813201202314616
S2140097202846FFF7F5F995F8423009F10101012BBB
S214009730C9B21BD10028ADD12846BDF81420FFF7CA
S214009740E7F90028A6D109F10201BDF81620C9B232
S2140097509CE71023202205A90DF113008DF8133085
S2140097602CF0D2FF9DF813201204D8E7002891D1E0
S214009770059A8BE7B8F5803FFFF455AF022753E70D
S214009780743D002070B586B00E4605460392A0B321
S21400979090F834309BB3B1F5801F32D202212CF002
S2140097A023FB31462846184A0DF11703FEF7B4FD91
S2140097B0044618B99DF81730032B0ED10223314604
S2140097C000932846CC2303AAFFF774FE0446E86BF2
S2140097D02CF0A3FC204606B070BD022B0BD10A4924
S2140097E028462CF0F8FC039902468142EFD0284622
S2140097F0FFF704FFEAE76124E9E72124EAE71124FA
S214009800E8E72924E6E700BF743D0020F7B50C46DC
S2140098101646054668B390F8343063B3B1F5801F3A
S2140098202BD202212CF0E0FA21462846144A0DF1EC
S2140098300703FEF771FDC0B99DF80730032B14D05F
S214009840022B14D10E4928462CF0C5FC471C0246B4
S21400985039462846FFF7D2FE044606B13760E86B65
S2140098602CF05BFC204603B0F0BD2D24F7E7612406
S214009870F5E72124F6E71124F4E72924F2E700BFF0
S214009880743D002030B50C46054685B028B390F8E8
S214009890343023B3B1F5801F23D202212CF0A4FA72
S2140098A00DF10F03214628460F4AFEF735FD034605
S2140098B088B99DF80F20032A0DD003222146009276
