S01B00006275696C642F72656C656173652F7A69676265652E73333714
S21400400008100020797C000009D700001B1A030066
S2140040101B1A030011D7000019D700001B1A030053
S2140040201B1A03001B1A03001B1A03001B1A0300AB
S2140040301DD70000006804001B1A03001B1A0300AB
S2140040401B1A03001B1A03001B1A030091770000BB
S2140040501B1A03001B1A03001B1A03001B1A03007B
S2140040601B1A03001B1A030021DC00001B1A0300A6
S2140040701B1A0300E5B70100456E03001B1A030078
S2140040801B1A03001B1A03001B1A03001B1A03004B
S2140040901B1A0300F58300001B1A03001B1A0300FB
S2140040A01B1A03003D800000218000001B1A03003D
S2140040B01B1A03001B1A03001B1A03008D30020094
S2140040C0837903007F790300F127020099790300C2
S2140040D0877903004D3002008B79030081140200BB
S2140040E0CD3002001B1A03001B1A03001B1A030024
S2140040F01B1A03001B1A03001B1A03001B1A0300DB
S2140041001B1A03001B1A03001B1A03001B1A0300CA
S2140041101B1A03001B1A03001B1A03001B1A0300BA
S2140041201B1A03001B1A03001B1A03001B1A0300AA
S2080041301B1A03004E
S214004134F0B5114A114C124E00F00105E3695F0711
S21400414413D40DB9334213D103EA00078F4207D1C3
S2140041540B4A1A40002A14BF6FF001000020F0BD7D
S214004164013AEBD16FF00200F9E74FF0FF30F6E7C3
S2140041746FF00100F3E700BF80969800000003503C
S214004184020001000B4B70B5D96911F480310DD1D2
S21400419401244FF48072084E084DF46020462C64C7
S2140041A41A61FFF7C5FF3464EC6070BD6FF0010060
S2140041B4FBE700BF0000035000100350002003502C
S2140041C438B541F6713301220C4C0021E569E363EE
S2140041D40B4B05F48035DA600223606121202361ED
S2140041E4FFF7A6FF10B92120FFF7A2FF0122054B17
S2140041F4DA600DB10023E36338BD00BF000003504E
S214004204001003500020035070B5134C6061E3693E
S2140042145B071ED40E4656F8043B8D18A361AE42C7
S2140042240BD10423002121202361FFF781FF58B915
S214004234BDE870402120FFF77BBF08210846FFF742
S21400424477FF10B10423236170BD56F8043BA361C5
S214004254E5E74FF0FF30F7E7000003502DE9F84399
S214004264174B1646DA69894602F4803841F67132ED
S214004274DA630122074603F58053124DDA6066B905
S21400428430460122104BDA60B8F1000F03D000224A
S214004294A3F50053DA63BDE8F88307F500542C4011
S2140042A4E41BB44228BF3446494622463846FFF744
S2140042B4ABFF0028E5D12744A144361BDFE700BF47
S2100042C40000035000E0FFFF0020035045
S2140042D02DE9F04F4FF0FD0BC9B09A460DF11B09C2
S2140042E09DF8503108AFCDF80C90CDF808B0019786
S2140042F0059303890446009383790E4690464188C9
S2140043008288407813F05AFB054650B10090A38887
S214004310002062883C4913F091FE284649B0BDE86B
S214004320F08F99F8000030F0A1FE38B12846A38837
S2140043306288364913F082FE8D25EEE75A463946E6
S21400434099F8000030F03AFE8346002855D0529B7C
S2140043501BB1BDF84C3198424FD8002399F8009015
S2140043600793A9F14102012A5FFA8BFC36D838463A
S2140043700CF1FF3C5FFA8CFE254ADFF89CC07345C3
S21400438025DB059B07A94FF0040C0A6043BB1823E6
S2140043909FED1B7B5E431F486246831908363044F8
S2140043A083ED027B18F0B8FCB8F1000F01D088F856
S2140043B00090BAF1000F01D0AAF800B0529B002B73
S2140043C0ABD05A463946184618F0A6FCA5E710F8B2
S2140043D0011F013351400CFB01F2D0E7059B3BB1B6
S2140043E023464A4661463846009611F07FFA94E71F
S2140043F0BCF1080FD8D83946C9E701258DE700BFBC
S21400440000000000000000003E11040073110400CC
S214004410C59D1C8180100020930100010000000053
S2140044202DE9F04F93B0CDE90A32DDE91C630E9317
S21400443053EC102BCDE90801104619468DED060BFE
S2140044401E9D17F03FFE80B1DDE906014FF0FF32FA
S214004450C74B17F05FFE40B9DDE906014FF0FF32AB
S2140044606FF4801317F038FE70B1DDE908019DED9A
S214004470060B0E9B1E95CDE91C63DDE90A3213B0D0
S214004480BDE8F04F00F08CB90022DDE906010023FC
S21400449017F022FE002800F03781DDE906A303F1BD
S2140044A0004BCBF30A5015F48063A0F2FF3008BF30
S2140044B006260F9317F034FB9DA3D3E9002317F0CD
S2140044C099FB9DA3D3E9002317F0DEF9CBF3130481
S2140044D0894644F07F5180460022A64B504641F460
S2140044E0401117F0CFF996A3D3E9002317F082FB0B
S2140044F002460B464046494617F0C6F917F014FE2A
S214004500044617F00DFB90A3D3E9002380468946A6
S21400451017F070FB0022984B17F0B6F917F004FE60
S2140045208BA3D3E9002307464946404617F062FBB3
S21400453080463846894617F0F3FA87A3D3E9002366
S21400454017F058FB02460B464046494617F09AF9C4
S21400455002460B46CDE90C2317F04CFBDDE90C2395
S214004560804689461046194617F08EF90022CDE996
S2140045701001824B4046494617F066FC0022804BED
S21400458017F082F902460B464046494617F05CFC97
S21400459000227C4B17F078F902460B464046494607
S2140045A017F052FCDDE90C238046894600204FF0C8
S2140045B0804117F067F902460B464046494617F019
S2140045C063F902460B46DDE9100117F03DFC07F2E1
S2140045D0FF3700226C4B17F057F900223B0517F007
S2140045E009FB52465B468046894617F093FD002835
S2140045F040F08D80CDE90C8904F16303C62B8CBF97
S2140046000527042729051FD555A3D3E900235046BF
S214004610594617F075FD002800F0838052A3D3E9B1
S21400462000235046594617F057FD002879D0A64279
S214004630D8BF00244FF00007C4BF341B04F1FF347A
S21400464026463C4645F480650E9B9F422CBF4FF0A5
S2140046500008A3EB070815F0020903D0002F18BFC7
S2140046604FF000083CB1DDE90C235046594617F0E0
S214004670EBFB82468B46DDE906010022002317F09D
S2140046802BFD10B10BF100439B46DDE9080125F434
S2140046900063CDE90183DDE90A324BEC10AB0096EE
S2140046A000F07EF802465FB3DDE9091315F0200F2F
S2140046B0089E00F101050CBF65204520B047DDE9E6
S2140046C008010523002205930A23002CCDE90232B7
S2140046D007F1FF374FEAD473B8BF64422A46019306
S2140046E004970A9B009432F0B8FA0246B9F1000F1C
S2140046F006D00B9BC41A0B9B1A190E9BA34245D8D7
S214004700104613B0BDE8F08FDDE906ABC9E600221F
S214004710404649461A4B17F097FB013CCDE90C0181
S2140047206AE7002E90D00F9B002B8DD0013E8BE7C2
S214004730FB799F501344D33FB3C8608B288AC63F8B
S21400474061436F63A787D23F71A379094F930A40ED
S2140047501655B5BBB16B0240EF39FAFE422EE63F66
S2140047602D431CEBE2361A3F0000000080842E41E9
S214004770FFFFEF7F0000F83F0000E03F00002C4006
S21400478000002440000018400000F03F2020DDE933
S2140047900913089DA8470134ADE700BF00000000DC
S2140047A02DE9F04F5BEC10AB97B0CDE90501DDE9E4
S2140047B02048CDE90723504652465B465946229F7D
S2140047C017F080FC70B90323CDE902870193A44B50
S2140047D00093DDE90501DDE9072332F070F917B033
S2140047E0BDE8F08F4FF0FF326FF480135046594605
S2140047F017F072FC28B10423CDE902870193994B88
S214004800E6E74FF0FF3250465946974B17F082FCCA
S21400481050B178074CBF04220322CDE902874CBF73
S214004820924B934B0192D3E7504689A3D3E90023DA
S214004830594617F06FFC38B987A3D3E900235046D2
S214004840594617F049FC68B1DDE90723DDE90501A3
S2140048504BEC10ABCDE92187209417B0BDE8F04FA4
S214004860FFF7DEBD002200235046594617F034FC01
S214004870B8B15B4652460020002117F003F801232A
S21400488082468B46099317F4806F08BF06243021B2
S21400489023460EAAA4F12009092B04D89946E41A47
S2140048A007E00990EFE7013B4B4502F8011BF3D107
S2140048B020245946504617F037FC6E4B054603EB4E
S2140048C0C90393ED007B8DED0A7B17F029F90246AC
S2140048D00B465046594616F0D5FFDDE90A2317F079
S2140048E089F902460B46CDE90C2317F045FC06462F
S2140048F017F006F902460B46DDE90C0116F0C2FF7A
S21400490002460B46CDE90C2300225B4B17F002FC57
S214004910B8B10136304617F0F3F802460B46DDE92B
S2140049200A0117F0E3FB08B100260135B9F1000FC4
S21400493014D00A210EAB1A19202C40D13022A144E3
S21400494050E00022DDE90C014B4B17F0C5FB0028B8
S214004950ECD10EB1F107E9D50136E7E7284617F0A6
S214004960DFF802460B465046594616F08BFF0022EB
S214004970414B17F0B1FB10B9013525F001050A21AE
S2140049800EAB1A19202C0AD095FBF1F001FB10553E
S214004990303502F8015B013405460028F2D107F0F5
S2140049A00302012A38D1B8F1000F35D0099A12B99E
S2140049B017F00C0F01D008F1FF38302223E0B6FBC9
S2140049C0F1F001FB1063092E03F1300309F1FF3902
S2140049D004F1010402F8013BB0D90646ACE70EA983
S2140049E00A551C46202CCAD04C4504F10103F6D1CA
S2140049F004F158020DEB02042E2204F8202C1C466B
S214004A00BDE71A550134A04506D9202CF9D1CDE9C9
S214004A10028701940EABDBE6202CF8D0099B3BB155
S214004A202D2204F158036B4403F8202C0134EEE7E2
S214004A307A0704D504F158032B226B44F4E73B07AE
S214004A40E5D504F1580320226B44EDE7AFF3008070
S214004A500000000065CDCD410000000065CDCDC151
S214004A60FD2D0400012E0400FFFFEF7FF42D04004F
S214004A70F92D0400707804000000E03F00000000FC
S214004A8070B58EB02C22002103A817F0A7FF642370
S214004A904FF002320893CDE905230B2301218DF850
S214004AA034305B4B8DF810101D880D4040F0A98007
S214004AB0084636F0A7F90A22564B574C1A704FF4A0
S214004AC02873ADF812304FF0FF332360534B544930
S214004AD01B8820460B82534B534A1B68CD828B6142
S214004AE0524B0D621B884B82514B1B68CB611EF0EC
S214004AF063FB20B14FF41B714E4835F0E9FA0521EF
S214004B00206832F09FFA20B140F27D21494835F006
S214004B10DFFA206816F072FE474B2068196832F0FC
S214004B2054FB0C2536F0D6FD6843099036F0D2FDCE
S214004B3068430DEB05010790206818F091FD20B141
S214004B4040F295213B4835F0C3FA256820F06CFD0D
S214004B5000220146284632F0B0FB20B140F29721F1
S214004B60344835F0B5FA40F20353344D344E2B80BA
S214004B70052396F90000AB707F2801D11EF012FCC9
S214004B803378EB7036F0A6FD00EB80008000A8803E
S214004B9036F0A0FD0023C0004FF0FF31E880AB6088
S214004BA04FF0FF3018A3D3E9002336F07DFA2549ED
S214004BB0206832F03BFB206802A932F057FF20B194
S214004BC04FF434711B4835F083FA042220680DEB4D
S214004BD0020132F0CFFA042804D040F2D72115485B
S214004BE035F076FA01A9012031F0CEFE08F0D0FDAE
S214004BF001201FF05BF82DF02EFD1FF081F81EF04F
S214004C0069FB0EB070BD00BF0A0020FF4203000023
S214004C10525C0020A1630020785600203A920400DF
S214004C20746A0020409204002DAE030038920400FF
S214004C303C920400C06604009C6700206C5600206E
S214004C404A6D0020A1AE03000348044B834202D005
S214004C50034B03B118477047786D0020786D00202D
S214004C6000000000064B0749C91A891048BF0131E9
S214004C70491003D0044B0BB101481847704700BFDA
S214004C80786D0020786D00200000000010B5064CFE
S214004C90237843B9FFF7D8FF044B13B10448AFF3AA
S214004CA000800123237010BDB01500200000000016
S214004CB0C0B5040008B5044B1BB104490448AFF363
S214004CC00080BDE80840CDE700000000B4150020D5
S214004CD0C0B50400A3F5803A704700BF154B002B03
S214004CE008BF114B9D46FFF7F5FF00218B460F4688
S214004CF01148124A121A17F071FE0C4B002B00D006
S214004D0098470B4B002B00D098470020002104004A
S214004D100D000B4818F056F917F038FE2000290051
S214004D202CF088FB18F03CF900000800000000009A
S214004D30000000000810002008100020F863002083
S214004D40D1CF010007B5012120200DF1070201F0A7
S214004D501FF858B10223012120200DF107028DF81B
S214004D60073001F025F803B05DF804FB9DF8071046
S214004D700229F8D00222094816F0D6FB02230121A8
S214004D800DF1070220208DF8073001F011F82CF005
S214004D90ABFA4FF4FA6000F047FEE4E768C303009E
S214004DA038B501F0BFFF01F093F9012805D001F0F6
S214004DB08FF9022801D001F0B1F9064D2B783BB9E6
S214004DC001F086F90128044602D12CF016FB2C705F
S214004DD038BD00BF305D002010B5044600882CF0BA
S214004DE057FAA37884F84400834202BF0123E37095
S214004DF02371074B04F11C00C4E9073401F022F8C4
S214004E00224620880349BDE8104000F05BBF00BF83
S214004E1027100300F10F030070B5C37804460D4653
S214004E201646002B34D1D1B1214816F07DFB012364
S214004E30E370E36CA6600BB1E06D9847E368F61A82
S214004E4063699E4221D2217E1A480131C9B2217679
S214004E5016F06AFBA36D13B1217EE06D9847E570EE
S214004E602CF055FA15B3237903BBA268238A801A5F
S214004E7083421BD801231048237116F055FB236D7F
S214004E80A3B1E06DBDE87040184701232376E6E73E
S214004E900029E4D1094816F047FB636DE660E5702B
S214004EA02571002BDBD0E06D9847D8E770BD00BFBA
S214004EB090C30300A1C30300CFC30300BCC3030019
S214004EC070B51E46838804460D46C18002810BB12C
S214004ED0868070BD817800882CF0C6F80123E370C8
S214004EE0064BA680C4E903340C34204600F0AAFF23
S214004EF029462046BDE870402CF000BA7310030027
S214004F0010B501790446B1FA81F1008849092CF000
S214004F1022F921796088B1FA81F149092CF01BF950
S214004F20034B1A68A24204BF00221A6010BD00BFDD
S214004F30CC15002070B543790446A3B100880E4E08
S214004F4004F10805336813B10C4B1B786BB121795B
S214004F502CF001F964210A4B3460A3602846BDE8B2
S214004F6070402CF0CBB94088E9E7064816F0DCFA2A
S214004F70054B3221A360F1E7CC150020315D0020FF
S214004F80014F0000E5C30300354F000010B504468E
S214004F90E0B10F4816F0C8FA01236371A37953B93C
S214004FA0217920882CF0D7F8236B7BB1606B012128
S214004FB0BDE8104018472046FFF7A2FF04F108009E
S214004FC02CF0A1F92046FFF7B5FFEDE710BD00BFB6
S214004FD01BC4030010B50446F8B1104816F0A4FA36
S214004FE000236371A3796BB921792088B1FA81F126
S214004FF049092CF0B0F8236B7BB1606B0021BDE84B
S214005000104018472046FFF77BFF04F108002CF0FD
S2140050107AF92046FFF78EFFEDE710BD26C40300A1
S21400502010B5044668B1074816F07EFA6379204644
S2140050301BB1BDE81040FFF7CDBFBDE81040FFF73D
S214005040A5BF10BD32C4030010B50E4C0E48214655
S21400505016F06AFA82210D4816F066FA82210220BE
S214005060A21E00F0A5FE014630B134F8022C084816
S214005070BDE8104016F058BA0648BDE8104016F0D5
S21400508053BA00BFBE57002041C403005CC40300EF
S21400509067C40300ABC4030038B5124C8221224615
S2140050A0022000F075FEA51C014698B122880E4825
S2140050B016F03AFA2A460D4B03F1280153F8040B72
S2140050C08B4242F8040BF9D119889B7811809370B3
S2140050D02A23238035F8021C054A0648BDE83840D6
S2140050E016F022BABC570020B6C4030036C503002B
S2140050F0BE57002014C50300034B1B781BB18B4220
S21400510001D82CF0F1B87047F06C002010B50446BA
S21400511001460E4816F008FA012C11D10C4B0D482A
S2140051201A884FF6FF739A421EBF0022094B5A7424
S2140051302BF0F7FF01F04AFFBDE8104001F01EBE5D
S2140051400448BDE810402BF0EEBF00BF61C5030069
S214005150A46C00202867002070B500241A4D1B4E52
S2140051603378A3421BDC0024194D1A4E3378A34231
S2140051701BDC0024184D194E3378A3421BDC00F0CC
S214005180A7FF012816481CD12BF0CBFF01F01EFF0D
S21400519001F0F4FDBDE87040124800F0B9BF2846A3
S2140051A0FFF71AFE01346035DAE728462BF09FFF3A
S2140051B001343435DAE728462BF0D2FF013438358F
S2140051C0DAE72BF0B0FFE5E778210020375D002016
S2140051D098250020385D0020481F0020365D0020FE
S2140051E0286700200D5100002DE9F04F87B0FFF72B
S2140051F053FFB94B05A805932BF0D6FF054617F0CD
S21400520069FAB64CC2B21F2A627004D9B44816F0C6
S2140052108BF900F0FDFB2946A01C17F07DFD05A8C4
S2140052202BF0C2FF054617F055FAC2B21F2A84F8C3
S214005230212001D9AB48EAE7294604F1220017F0FD
S2140052406BFD05A82BF0B0FF322604460027257814
S214005250002D40F09E80DFF8CCA2FFF77DFF9AF885
S2140052600030DFF8C4B2DFF8C4829F4F00939BF88B
S214005270003098F8002039789C4816F055F93A78AE
S21400528098F800109BF8000053180344DFF88C923F
S2140052909AF800002C4603444846DBB2AA4200F3C4
S2140052A0CD82012B38BF0123914E02933246002354
S2140052B034464FF482714FF6FF75029801338342ED
S2140052C013705180958002F10C02F6DB894B8849F9
S2140052D08248A36000F0D2FF0C20E279A36800FBAE
S2140052E0023000F0A3FDE3790133E371824B1A88A4
S2140052F0AA4204D07E49814801F0C0F87E4B1A8845
S2140053004FF6FF73D21A18BF012279497C4801F084
S21400531077FC0023774D39780C22994200F3968269
S21400532000264FF00C09774B98F800203978B242E7
S21400533000F3BE820C23002602EB010903FB0941A1
S2140053409BF80000704AB04200F3CE8298F8003016
S2140053504FF00C083E784FF0700900271E440644B4
S21400536008FB0644DFF8C8B19AF80030BB4200F3E9
S214005370D18202995E4800F0E7FD059B56491A4621
S2140053808B4240F0D882614807B0BDE8F04F16F077
S214005390CBB8532D0FD163784C2B40F04681A378C1
S2140053A0502B40F042810122594B1A7005A82BF071
S2140053B0FBFE04464BE7442D13D16378303B092BA4
S2140053C0F4D8601C2BF0FDFE524B534A197800238C
S2140053D086B2994202F16002E8DD22F8466C01339B
S2140053E0F7E7422D0BD16378542B55D1A01C00F063
S2140053F0B7FC414B188018462BF0D7FDD6E7582D42
S21400540034D8412DD2D9433D152DCFD801A353F81A
S21400541025F000BFBF570000AD530000AD5300009D
S214005420AD530000AD530000AD53000081550000A1
S214005430AD530000AD530000355500007F5400000A
S214005440AD530000AD530000AD530000AD53000057
S214005450B55600002B560000AD530000AD530000BB
S214005460AD530000AD5300002F570000692D9DD1AD
S214005470601C2BF0A6FE80B22BF032FF96E71A4B8C
S214005480012019780023254A994202F1A8028DDDF1
S21400549002F8A60C0133F7E7601C00F061FC054635
S2140054A0E01C2BF006FF0121024628462BF0BDFE2D
S2140054B060211848184C03785943621865524FF417
S2140054C0FA6111824FF4487151611549568311658E
S2140054D0013303706AE700BFBE5700203C66002019
S2140054E080C5030097C50300355D0020A7C50300EF
S2140054F09816002010170020A46C002048160020E4
S214005500D01500209C1B0020E0190020F7C50300E2
S214005510315D0020375D0020782100209C1C002093
S21400552093110300325D0020335D0020345D0020BF
S21400553090180020601C00F013FC00224FF0340886
S2140055408146CB4F11462BF070FE3A78C94D08FBCA
S21400555002F225F80290E378A818693B18BF0123E9
S21400556083702BF0C4FD0023C3493A784B600123B7
S21400557008FB02551A443A700D601F460B7415E777
S214005580601C00F0EDFB0022114681462BF04DFE1C
S2140055903422B74DDFF8DC822B78534328F803908B
S2140055A008EB0300E378693B18BF012383702BF0F8
S2140055B09EFDB24A00231046916B31BB342200EBAD
S2140055C083102B7802FB03838363AD4A00231046C7
S2140055D0D2F8A410F9B9A82202FB030034222B78D3
S2140055E002FB0383C0F8A4305FB9A34A3B461146CA
S2140055F052F8040BA8B934202A7800FB028241F83E
S21400560023202B7801332B70D0E60133042B02F1D4
S2140056104002D1D1D9E70133042B02F1A802D7D139
S214005620E2E70133042BE3D1EBE7601C00F098FBC4
S2140056300546E01C2BF03DFE0121024628462BF0D5
S214005640F4FD4FF0600C8F488F490278DFF830E2A7
S2140056500CFB02FC21F80C504FF4487501EB0C03D0
S2140056601D825D61894D5E839D65E478884D642C5E
S21400567004BF01249C70A8242B785C430EEB040C1A
S2140056800EF804304FF40074ACF8024003248CF893
S21400569004408CF80640602404FB0211CCF8081085
S2140056A032210133DBB201328CF805308CF8A010C1
S2140056B00270A8E7601C00F053FB00224FF0380988
S2140056C08246DFF8E88111462BF0AFFD98F80030EF
S2140056D0704D09FB03F225F802A04FF0010AA91845
S2140056E081F804A0E2787AB1E01C00F039FB0022D1
S2140056F0044611462BF099FD98F8003009FB035933
S214005700A9F8024089F806A063495C480A784FEA7F
S214005710821C00EB821400F80C20382000FB035596
S21400572001320133656388F800300A703EE6601C7B
S21400573000F016FB8046E01C00F012FB0546601DDC
S2140057402BF0B7FD04460246012140462BF06DFDC6
S2140057502246284601212BF068FD6021DFF824C18F
S214005760DFF824E19CF800204FF4487401FB02F3B4
S2140057700EEB03002EF80380531CDBB24B430EEBFC
S21400578003012EF80350931C9422048244610C8279
S2140057904C61424C8CF800302378414D5A43DFF878
S2140057A0EC8005EB020CAB5401334683C0F85880FE
S2140057B0CCE901014E83C1F858802370F6E5601CE1
S2140057C000F0CEFA0546E01C00F0CAFA00220446B5
S2140057D0114628462BF029FD00224FF038094FF0DD
S2140057E00108114620462BF020FDDFF8C0C02948EE
S2140057F09CF800204FF0000E09FB02F3C118C552BA
S21400580002EB0803DBB209FB03F3C518C452931C72
S214005810702224488CF800300378234C5A4304EB5B
S214005820020C81F8048081F806E0A354CCE9011547
S21400583085F8048085F806E043444AE64679013553
S2140058408E4284BF04714471A83027E523B116F850
S214005850051C02FB0155B56031464846039301F02E
S21400586089FD039B09F1A80901330C3653E500BFF7
S214005870385D002098250020286700209C1B00200B
S2140058809C1C0020375D002078210020F950000085
S214005890355D0020481F0020345D0020335D002069
S2140058A0E0190020325D002090180020365D0020B0
S2140058B0711808D04A1E09FB0242D27909FB02552C
S2140058C009FB01429560184609FB0141039301F06C
S2140058D011FB39781C48314409FB014101F07CF882
S2140058E0039B013640331FE516EB090F18BF11F86E
S2140058F0050C039118BF03FB00554FF0940318BF27
S2140059008D6003FB062000F079FF03990C23013617
S2140059100C3115E5F74218BF14F8053C214618BFB0
S21400592008FB035509FB07B018BFA56000F03EFE54
S21400593001370C3418E513F8011D00297FF41EAD5D
S2140059403B2102F8011C19E53C1F002007B5012188
S21400595021200DF1070200F01BFA18B99DF8072068
S214005960024B1A7003B05DF804FB00BFF06C002019
S21400597007B5064B8DF80700187001210DF10702D8
S214005980212000F015FA03B05DF804FBF06C00204F
S21400599007B5022101200DF1060200F0F9F938B929
S2140059A0044815F0C1FDBDF8060003B05DF804FB21
S2140059B00020FAE714C6030007B50221ADF806007A
S2140059C00DF10602012000F0F3F9014610B103487C
S2140059D015F0AAFD03B05DF804FB00BF35C6030052
S2140059E010B5FFF7D5FF04460146074815F09CFDA5
S2140059F00121064815F098FD24B9BDE810400120A5
S214005A00FFF7DABF10BD00BF65C6030077C6030008
S214005A1008B5044815F088FD00F0DAF92BF064FCB0
S214005A202BF05FFC8DC6030010B50446084A094BF0
S214005A301046136000F006FA002C18BF2146BDE899
S214005A40104008BF4FF4967101482BF057BC00BFBA
S214005A509C260020E11103002DE9F043384D91B05B
S214005A6008AC0746894690460FCD0FC495E80F0050
S214005A70002684E80F0001250323324C3248CDE986
S214005A800366CDE905668DF80E300796029536F06A
S214005A90FDF92E4836F0FAF932462D4920468DF8A3
S214005AA0176004F0ABFF334632462A498DF81900DA
S214005AB0009020468DF82390CDF82C808DF821603C
S214005AC004F0B6FF0A9020468DF8097004F01CFF1B
S214005AD0204608AA05A904F0D1FF02AA204603A979
S214005AE02CF008FD4FF400721B4B5A62194BE56010
S214005AF0626A920510D46BB94FF40072164B1148C7
S214005B005A6204F001FF114836F0C3F9002011B0C4
S214005B10BDE8F083013BEBE7002BEDD0094908A870
S214005B202CF01BFD4FF400720B4B06485A6204F033
S214005B30EBFE064836F0ADF9BDF82000E7E700BFFB
S214005B40B86704000040005A646A0400606A0400F3
S214005B5080841E0040420F000060005A0122034B62
S214005B601870034B1980034B1A7070473A5D00207B
S214005B70AC6C0020395D0020F8B5444B1B780BB99F
S214005B800020F8BD424B1B78012B03D1BDE8F8403E
S214005B902BF029BB3F4B1C884FF6FF739C42EFD07F
S214005BA03D4836F073F90023270AE4B21A46214628
S214005BB0384604F069FE012F04F0010326D00ED902
S214005BC0BD1E012DDCD8002B39D04FF080754FF06C
S214005BD070624FF480364FF47021304B09E003B307
S214005BE04FF080754FF070624FF480364FF470219E
S214005BF02B4B1868084029D0B04227D019681140AE
S214005C003FD1196821EA02022A4323E083B14FF00C
S214005C1080754FF070624FF480364FF47021214B40
S214005C20E7E74FF480754FF4706201260F21DFE737
S214005C304FF480754FF470623E460F21EFE74FF445
S214005C4080754FF4706201260F21C6E71A6822EAB3
S214005C50010232431A602BF0C6FA054600288FD0A0
S214005C60083744EA07102A460321C0B2FFF7F4FEBD
S214005C7040F6FF73684300F2FF70B0FBF3F080B2AB
S214005C807FE7A9427FF47CAFBBE700BF395D002009
S214005C903A5D0020AC6C0020646A040028C3035000
S214005CA020C3035024C3035010B5044C237823B9F3
S214005CB0034836F0EBF80123237010BD3C5D00204E
S214005CC0646A04002DE9F0431F4C85B007468846F9
S214005CD09146FFF7E9FF23781BB902F069F8012324
S214005CE023707BBAADF80C3030220023174E02FB2F
S214005CF003F4315DA51901BB012333554FF0FF3383
S214005D0004F1100012493044AB606F80C5F804807F
S214005D10C5F80C900AF04EFC04F108010422314448
S214005D200C4B009503A802F019F9A96802460A4828
S214005D3015F0FAFB05B0BDE8F0830133102BD6D181
S214005D40064815F0F1FBF5E73B5D0020C426002071
S214005D500B1203001D1203009AC60300C8C60300F8
S214005D6080B10278A2F14103032B0BD8407830387B
S214005D70C0B2082806D8054B134413F8413C40EA45
S214005D80032070474FF6FF70704700BFD8670400C7
S214005D9008B50B4642B101460448006803F038FCDB
S214005DA0BDE808402BF096BA022008BD9467002094
S214005DB008B50B4642B101460448006803F0B4FD3E
S214005DC0BDE808402BF086BA022008BD9467002084
S214005DD02DE9F0414FF000088CB0134F02AEFF23C0
S214005DE000930A224346314638682CF041F9C0B188
S214005DF0354606EB800405E055F8043B434528BFCE
S214005E0003F10108AC423868E9D9296803F014FFA9
S214005E100028F1D02D28EFD00CB0BDE8F0412BF0D3
S214005E2059BA0CB0BDE8F0819467002028B1034B46
S214005E300360034B43600023836070471900000330
S214005E403C670020FF2307B50021044A0093083072
S214005E500AF032FB03B05DF804FB00BFF712030044
S214005E600B460449024608680349097808B12BF036
S214005E7069BA7047D02900203E5D0020F7B50C4671
S214005E8018B12921194834F023F9246823685E796B
S214005E905F8830463946FFF7E3FFF0B18568E5B125
S214005EA0A089227D3946904291BF0020801AA368BF
S214005EB080B294BF03469B18E27C00903046A84709
S214005EC00138032803D8DFE800F0080F0B0D002484
S214005ED020462FF010FE204600E0812003B0F0BDE3
S214005EE08024F5E79324F3E78724F1E7F0C6030060
S214005EF0F8B515460D4A044610680D4A0B4611784B
S214005F0050B122462BF01EFA034628B100210C277A
S214005F10C678B14201DB0020F8BD07FB01F45A68E1
S214005F201019125BAA42F7D00131F2E7D0290020FF
S214005F303E5D002008B5034B1B6803B19847002060
S214005F4008BD00BFCC2900202DE9F74F04460D46BA
S214005F500026444B444F1860444B1970330100210F
S214005F60F85C013611F018FB0C2EF7D10C2D28BF6B
S214005F700C254FF0000901953B4EDFF8FCA03C4D88
S214005F80DFF8F880019B4B4502DC03B0BDE8F08FDC
S214005F9023784FF0000B337063887380A388B38038
S214005FA0A379C6F80880B371E379C8F8005088F87A
S214005FB004304FF00003A768A8F80630E3795B4585
S214005FC00ADC012116F8100B11F0E6FA08F10808B1
S214005FD009F101090C34D5E74FF0000338886B81CE
S214005FE02880F9784FF0000C2981BB78C5F804A00A
S214005FF0002B00930CBF802340232B737A680AF192
S2140060000C03614512DC0C2303FB01AABB6843B1F9
S214006010009A4FF6FF71B2FA82F2164B52092FF031
S214006020FAFC14350BF1010B0C37C7E7B2F800E0A9
S2140060300CF1010C23F80CEC92F802E00C3303F898
S21400604016EC92F804E00C3203F815EC12F809ECA2
S214006050BEF1010F14BF4FF0100E4FF0110E03F8F3
S21400606014ECCEE7D0290020884200203E5D0020B8
S214006070D42F00207D5E0000D4290020543200205A
S214006080014B1860704700BFC8290020014B1860FC
S214006090704700BFCC29002070B5128805460E4612
S2140060A0FFF726FF044670B102790499806816F05F
S2140060B03FFB064B1B680BB9002070BD31462846D7
S2140060C022889847F8E78620F7E700BFC82900200F
S2140060D008B510F007FB022806D0012806D0044BAE
S2140060E018784000C0B208BD0120FCE70220FAE79D
S2140060F03D5D0020054B10B51C682CB1FFF7E8FF8E
S2140061002346BDE81040184710BD00BFC429002034
S214006110014B1860704700BFC4290020034B1A7853
S2140061201AB901221A700CF087BB70473D5D00203B
S2140061300022024B1A70FFF7DDBF00BF3D5D002056
S21400614037B50446002832D010F0CCFA022830D1F9
S214006150608930F030F8E079237A003818BF0120E3
S214006160012B637A08BF40F008000BB140F0100026
S21400617063890BB140F00400257CA188A2790DB19B
S214006180E36873B90C4B11F0E3FD2178084611F073
S2140061905BFE2FF03BFB002814BF0320002003B05B
S2140061A030BDCDE90035054B11F0D2FDEDE70220FC
S2140061B0F5E70120F3E700BF8B1D0400B8ED0300F0
S2140061C008B50EF055FC014630B1044815F0ACF9A0
S2140061D0BDE808400EF0FCBF08BD00BF49C703007D
S2140061E0034B044A5B7C012103201370FFF7E0BDDC
S2140061F0286700203F5D002010B50446FFF7F0FF3B
S214006200B4F57F4F0BD100240F4B1A8813449C70B3
S214006210FEF71AFF2046BDE81040FFF705BC4FF614
S21400622001739C4204D1BDE8104008482AF061BFC3
S2140062304FF602739C4205D1BDE81040044B187817
S214006240FFF796BB10BD00BFBC5700202867002094
S214006250F06C002010B5074C012122460320FFF702
S21400626097FD28B92378044A003B18BF01235374CE
S21400627010BD00BF3F5D002028670020F8B5554BD5
S214006280554C1A884FF6FF739A4218BF03234FF0F7
S214006290080218BF2370514B36251A7032225A70E6
S2140062A0DA70DA7133221A724FF400121D719D7182
S2140062B04B4D3026C5644B4D426405654A4D012260
S2140062C085654A4D9E70C565494D5E714566494D6A
S2140062D086188566484DC6670567484D484E45672B
S2140062E0202580F8785080F8845000F12105C0F809
S2140062F08850444D80F84820C0F88C5080F85420D0
S21400630080F8602080F86C20C0F8806080F89020CC
S214006310C0F8B8303C4BC0F89440C0F8BC303B4C9A
S2140063200223C0F898403A4C80F8C030C0F8A44029
S2140063300F24384B80F8A840C0F8C430364B374C92
S214006340C0F8C8308223C0F8AC40354C80F8CC305A
S214006350C0F8B0400924334B334DC0F8D030334B2F
S21400636080F8B440C0F8D4302C7C314B80F89C20A8
S214006370C0F8A00080F8D820C0F8DC3044B12D4B1F
S21400638080F8E420C0F8E03005F11103C0F8E830EA
S2140063900C224FF0000CCB798F685A4327F802C0C6
S2140063A0BE180122443013440D347060B270F4708D
S2140063B0CB71FFF7CBFAFFF74DFFFFF789FE0128F9
S2140063C006D12B7C23B1BDE8F84017482AF091BED1
S2140063D0F8BD00BFA46C0020F16C0020405D0020DA
S2140063E0F167040001002000F067040002002000AE
S2140063F0EF67040003002000EE670400040042007C
S2140064000500420007003000FDFF210012001001C9
S21400641000404200EC67040000FF4401DC67040013
S21400642006004200BC5700202867002002FF20011B
S214006430F06C002001FF100113B504460D482AF049
S214006440BFFD6422C0F30F43637083B2B3FBF2F365
S214006450A0782370202201212AF096FFA07821221E
S21400646001212AF091FF0449201D02B0BDE810402A
S2140064702AF044BFA46C0020E09304000B7870B5AB
S21400648083704CF61E0303804FF02013C362012373
S21400649080F8303080F83C30C3180364114B124A41
S2140064A04364022382630C22044680F848300F4B74
S2140064B04063C364CB798D685A4304F12C06A81850
S2140064C046600B4E0133AE5000228260CB71094B02
S2140064D0201DC4E90134FFF7B5FC2046BDE8704036
S2140064E0FFF7AABFFDFF210021002000F26704008D
S2140064F00100010339640000437B044A0121137044
S21400650000781130C0B2FFF753BC00BF4A5D0020D0
S21400651038B504460078054D11302A460121C0B230
S214006520FFF736FC08B92B78637338BD4A5D002048
S214006530024B53F820002BF002B800BFB432002004
S214006540012908B506D0022907D049B92AF0EEFF7E
S214006550002008BD2AF0EDFFFAE72AF0EDFFF7E786
S214006560024814F0E1FF0120F3E700BF76C70300FE
S21400657010B4054C114654F820001A46BDF80430F5
S2140065805DF8044BFFF7DCBFB4320020002310B5E3
S214006590044683810364A0F844304830FFF752FC79
S2140065A0014BC4E9123410BD2515030038B5044666
S2140065B00B78194A43700D4642F82300FFF7E6FFB2
S2140065C02046FFF7A5FF4FF44013144A2361A2614B
S2140065D0134A0123E261134A23756262124A84F861
S2140065E02030A26204F10C022263104A84F82C3098
S2140065F062630C2284F8383004F10D03E363EB7910
S214006600A8685A43103481184C60094C01338450F2
S214006610084A8A60EB7138BDB4320020495D00201C
S21400662008002000F26C002000FF300001FF10017F
S214006630020101047165000010B47024427B0D480D
S214006640013A012904FB020006D0022908D059B9F4
S2140066505DF8044B2AF06ABF5DF8044B2AF069BF68
S2140066605DF8044B2AF068BF03485DF8044B14F04D
S2140066705BBF00BF9018002092C70300B0F85C30E4
S2140066802DE9F0418B4204460E4638D0437B077C0A
S2140066908BB31C4A12789A422DD370251A4A013BB6
S2140066A005FB032390F80F801B7B42462AF055FF1C
S2140066B0B845054601D1FF281FD13A463146204647
S2140066C094F890302AF049FF2F46054655221221AD
S2140066D06078A4F85C602AF057FEFF2F03D0394696
S2140066E02046FFF7A9FFFF2D09D029462046BDE822
S2140066F0F0412AF072BFFF25DFE70746E6E7BDE870
S214006700F08100BF325D002090180020416882684A
S214006710C978D27849B112B10321FFF7AFBF837BA6
S214006720002B0CBF01210221F7E72AB1837B002B47
S2140067300CBF02210121F0E7014814F0F5BE00BFAE
S214006740A3C70300037BD3B14368DA7812B182682B
S214006750D278A2B91B7933B1837B002B0CBF0421FE
S2140067600521FFF78BBF83681B792BB1837B002B3A
S2140067700CBF05210421F4E7014814F0D5BE70478C
S214006780D5C70300084A437B05211370837B5370EB
S214006790C37B9370037CD370037B137100780E3039
S2140067A0C0B2FFF705BB00BF4B5D002038B50446FE
S2140067B000780C4D0E302A460521C0B2FFF7E8FAE5
S2140067C020B1BDE83840084814F0AEBE2B7863739D
S2140067D06B78A373AB78E373EB7823742B7923730E
S2140067E038BD00BF4B5D002011C80300024B53F8B4
S2140067F020002AF03CBF00BFDC320020F8B504467B
S2140068000B78414A43700D4642F823003F4E2AF06B
S2140068104CFFFFF7CBFF6268A3683D483D49D6644E
S21400682050651165D465C3E91410DE64DC654FF06D
S21400683098730227636101230C2604F10C01E161C1
S21400684035491032216204F10D01A16233492376E5
S214006850E16204F10E016163314984F82430A163DA
S21400686004F10F0121642F4984F83030616404F18B
S2140068701001E1642C4984F83C3084F848302165E6
S21400688084F85470A265EA79A96806FB02F004F160
S214006890140E01EB000CCCF804E04FF4817EDFF818
S2140068A0ACC041F800C0D018C0B2704341F800E058
S2140068B001EB000C0020CCF804001C4884F8703073
S2140068C020661B4884F88830A0661A481A4BE06693
S2140068D01A48C4F88C30D3196067DBB21848734383
S2140068E0A06704F15C00C4F88000164884F8647061
S2140068F0C4F8840084F87C70C81860344460124879
S2140069000332C850EA71F8BDDC3200200D67000083
S2140069103116030045670000010020010200100147
S2140069200300300104003001050021014A00210067
S214006930F467040051001000F6670400F7670400CF
S214006940550021006F0018001200010401FC01062A
S21400695070B50D460646144613460A4601461A48C2
S21400696014F0E2FD25B92046BDE87040FFF744BCB0
S214006970072D05D121463046BDE8704000F0BEBC6C
S2140069804FF601439D4205D121463046BDE8704092
S214006990FFF72CBF062D05D121463046BDE87040D6
S2140069A000F062BAB5F5817F05D121463046BDE8D4
S2140069B07040FFF7BDBD202D04D12046BDE87040D5
S2140069C000F0EAB870BD00BF40C803000148FFF7FA
S2140069D057BB00BF516900004FF4C01330B50360C9
S2140069E001230C220371064B8C688360CB795A43D3
S2140069F0A518686003480133A050CB7130BD00BFB6
S214006A00F8670400040001010368064A0C211360BD
S214006A104368536003891381438922205381FFF71B
S214006A20C7B900BF0433002010B50368044686B01B
S214006A30FBB1114814F078FDA37B104A8DF80430A2
S214006A404FF48273ADF806300123CDE9022300230C
S214006A5001A804938DF81430FFF772FB2046618975
S214006A602AF033FE2046FA2150F8143B59432AF008
S214006A7045FC06B010BD00BF73C80300200000012F
S214006A8010B5064C236843B1054814F04DFD206848
S214006A90BDE8104041892AF018BE10BD1033002012
S214006AA094C8030070B5364910460C68BDF810202F
S214006AB0002C5ED003285CD8DFE800F0021E2745D5
S214006AC0002B5AD0022A58D91D78B3F80160291E27
S214006AD018BF012132462B4814F026FD2DB1314651
S214006AE020462AF0F2FD002070BDE573FA206368A8
S214006AF058432AF08AFCF6E7234814F015FDE37B9A
S214006B00002B38D00023E373F0E7002B35D0032AA0
S214006B1033D91D681D48294614F006FD1C4B2A1F54
S214006B209A4201D90220DFE723680BB19D42F9D8CB
S214006B3023899D42F6D3E37B6560B3B9FA206843A8
S214006B402AF063FC11E0002BCED0012ACCD91D8898
S214006B501048294614F0E8FC002DE3D063689D42F7
S214006B60E0D8E37B2581002BE8D12046FFF74CFFD9
S214006B70B9E70120B8E70420B6E70320B4E700BF72
S214006B8010330020B7C80300EEC803000DC9030089
S214006B90FCFF6D0038C9030038B5154B1C6834B3CC
S214006BA0F0B92168134814F0BFFC23683BB1626853
S214006BB0934204D2104814F0B7FC6368236004F1D3
S214006BC0140528462AF09FFB236823B1FA2128469D
S214006BD059432AF093FB2046BDE83840FFF714BF20
S214006BE0032804D16189054814F09EFCF3E738BDFC
S214006BF01033002063C9030091C90300C6C903000F
S214006C0070B53D4B0D46044609781860002A6DD1D4
S214006C1001231A46A1730021E1730121A1814FF4DB
S214006C206151C4E900132823344E22810C213246D8
S214006C3022206381FFF7ACF860B9D6E900230AB1D9
S214006C409A4207D3318999429FBFC4E900237389CA
S214006C50218163812A4B2B4AE363042384F8403066
S214006C6084F84C30E318A264236504F10802264B2E
S214006C70E265264A63650223226604F10A02A266DA
S214006C80234A84F85830E2660C2284F8643084F88C
S214006C90703004F10C0364646367EB79A8685A43A8
S214006CA004F13C0681184E601A4E01338650FA26CF
S214006CB0194A1A488A60EB71FFF7E8F9208904F14F
S214006CC0140570432AF0A1FB618920462AF0FDFCDA
S214006CD0134B2846C4E90534FFF7B4F8216849B1D8
S214006CE028467143BDE870402AF008BB4FF4F073A5
S214006CF002228FE770BD00BF10330020043300204F
S214006D0000002301010023000200210003002101EE
S214006D10FDFF210020000105A56A0000816A000031
S214006D20296A0000134B10B51C680CB3E37BEBB16B
S214006D302AF0EDFA2369C01A002809DB0E4814F081
S214006D40F3FB0023FA20E373636858432AF05DFBE5
S214006D50E37B5BB12489FA235C432AF061FBA04203
S214006D6006D02046BDE810402AF04FBB6468F2E724
S214006D7010BD00BF10330020F3C9030038B500244F
S214006D80044D55F8040B08B12AF0B2FC01340A2C65
S214006D90F7D138BD14330020042908B50AD172B1E2
S214006DA06BB113781BB92AF0CEFC002008BD2AF080
S214006DB0C0FCFAE7034814F0B7FB0120F6E703200F
S214006DC0F4E700BF2DCA030010B4054C114654F872
S214006DD020001A46BDF804305DF8044BFFF7DCBF10
S214006DE0143300200229024608B50ED004D839B95B
S214006DF010462AF0A8FC06E04029F9D0412907D120
S214006E0010462AF096FC002008BD2AF0A6FCFAE7F9
S214006E10024814F089FB0120F6E700BF4DCA0300C4
S214006E2010B4054C114654F820001A46BDF804303C
S214006E305DF8044BFFF7D6BF14330020426B094BB6
S214006E4052791A7082785A70C2789A70826B12B130
S214006E5090F83C20DA70007804210930014AC0B26C
S214006E60FEF7A6BF505D0020024B53F820002AF024
S214006E7090BC00BF1433002038B504460078084D97
S214006E8009302A460421C0B2FEF782FF30B96B787B
S214006E90A370AB78E370EB7884F83C3038BD00BF65
S214006EA0505D002038B504460078114D09302A465A
S214006EB00421C0B2FEF76CFFC8B9A3782A78022B6B
S214006EC00CD004D863B920462AF03DFC01E0FF2B25
S214006ED00AD02046BDE838402AF00ABC002AF2D183
S214006EE020462AF026FCF4E7002AF9D1EBE738BD65
S214006EF0505D0020F8B504460B78274A0D4642F848
S214006F0023004370FFF7B8FF636B244A5C631A6381
S214006F102046FFF7C7FF20462AF0EAFB4FF480130F
S214006F2063600123626BA66B0532E2601C4A237223
S214006F302261A21C2375A26166B11A4A84F8203029
S214006F40E261E21C6262184A84F82C3004F13C03C9
S214006F50A26223630C204FF0060CEA79A96800FBB6
S214006F6002F70434CB1921F807C05C600124002E18
S214006F700CBF022604269C700C4CDE709C60531CD2
S214006F80DBB243430A4CC818CC5000234360094B7D
S214006F9002328360EA71F8BD143300206F170300D5
S214006FA00340300101FF300102FF1001216E000096
S214006FB008000100C96D000028B1034B1B7883420E
S214006FC034BF002001207047345D002070B50025D6
S214006FD00A4C0B4E3378AB4200DC70BDD4F8A420CC
S214006FE042B123791BB16079FFF7E6FF10B910466E
S214006FF02AF070F80135A834ECE700BF9C1C00208E
S214007000355D002008B5427901461046FFF7D4FFEB
S214007010A8B1CB780A48013A042B00EB82100ED8B0
S214007020012B08D81BB9BDE808402AF082BBBDE892
S21400703008402AF088BBBDE808402AF08EBB08BD91
S2140070409C1B002008B5427901461046FFF7B4FFA6
S214007050A8B1CB780A48013A042B00EB82100ED870
S214007060012B08D81BB9BDE808402AF06CBBBDE868
S21400707008402AF05EBBBDE808402AF06EBB08BD9B
S2140070809C1B002010B586B00446FFF721F80128A7
S21400709030D1E278042A2DD8DFE802F01332340328
S2140070A0030061790846FFF787FF58B31648032A9E
S2140070B000EB811050F80C3C58791DD1003818BFF1
S2140070C0012063784FF480728DF804304FF4827399
S2140070D0ADF806300623ADF8083001238DF80B30E6
S2140070E000238DF80A0001A8CDE903238DF814309B
S2140070F0FFF726F806B010BDB0FA80F04009E0E7CA
S2140071000020DEE70220DCE79C1B002010B586B0DE
S2140071100446FEF7DDFF012830D1E278042A2DD898
S214007120DFE802F013133203030061790846FFF725
S21400713043FF48B31548032A00EB811050F80C3C77
S2140071405B791DD11A1E18BF012263788DF80A20BC
S2140071508DF804304FF48273ADF806300623ADF890
S214007160083001234FF480728DF80B30002301A8FD
S214007170CDE903238DF81430FEF7E2FF06B010BD0C
S214007180B3FA83F25209E0E70222DEE79C1B0020F6
S21400719010B586B00446FEF79BFF012812D163782F
S2140071A0094A8DF804304FF48273ADF806304FF478
S2140071B08073CDE90223002301A804938DF81430D0
S2140071C0FEF7BEFF06B010BD0800070110B586B07A
S2140071D00446FEF77DFF012820D16278104B8DF81B
S2140071E004204FF4827294F8A01094F8A10059700D
S2140071F01870ADF8062004934FF4807202230949F4
S21400720001A88DF81430CDE90212FEF799FF94F824
S214007210A130013B18BF012384F8A13006B010BD91
S214007220545D00200800050110B58378044603B3BA
S2140072300379022B0AD142791046FFF7BDFE28B12A
S2140072400C48013A00EB82102AF087FAA379022B49
S21400725002D12046FFF716FF2046FFF7B7FF0223AE
S2140072606078A4F86C305522BDE8104012212AF050
S2140072708BB810BD9C1B00204388094A0821138048
S2140072808388538083681B8A938090F8A03093711C
S2140072908379D37100780430C0B2FEF789BD00BF91
S2140072A03E58002038B50D4604460178114814F0C3
S2140072B03BF94FF602739D420ED10F4B1B782BB94C
S2140072C063712046BDE83840FFF7D6BF62790AB141
S2140072D09342F6D20123F3E7B5F57F4FF1D120466E
S2140072E02AF0D4FAA278A368022A0CBF0122002250
S2140072F09A70E6E769CA0300345D0020024B53F833
S2140073002000FFF7CFBF00BF3C33002038B504464F
S2140073100078144D04302A460821C0B2FEF738FD26
S21400732020B1BDE83840104814F0FEB82B886380C2
S2140073306B88E978A380AA88A3681A82AB7984F858
S214007340A030EB79A371094B1B780BB9637138BD7C
S21400735009B19942FBD9064814F0E6F823780133C0
S214007360F4E700BF3E58002083CA0300345D0020C7
S214007370ACCA0300F8B504460B78494A0D4642F8F5
S21400738023004370FFF7C2FFA268464BD465D36460
S214007390454B02275365454B0C2613654FF44013A7
S2140073A0E3600123A11C6161E1624149103221635F
S2140073B02265211D3F4AA1633F484049626504F1AA
S2140073C0A002A061E163E265E01C611D3C4A206208
S2140073D061643C483C492266A21D2374237784F8E6
S2140073E0283084F8343084F84030A16484F84C7037
S2140073F084F8583084F864306062A266E879AA6837
S21400740006FB00F104EB060E02EB010CCCF804E0E0
S2140074104FF0060EDFF8C0C042F801C0C118C9B26E
S214007420714342F801E002EB010C0021CCF8041095
S214007430DFF8A8C084F88030C4F870C084F89830AC
S214007440DFF89CC0214BC4F878C0C4F89C30DFF845
S21400745094C0831CDBB2C4F87CC07343DFF888C0DA
S21400746084F8747084F88C7004F16C07C4F884C0D7
S214007470C4F89070DFF874C0154FC4F888C0C4F81C
S2140074809470D71870347C60124CD450C31CDBB296
S21400749073430826D4180430D6506160E871F8BDEE
S2140074A03C330020E31703002D1803002972000068
S2140074B001FF300104FF20011000300102FF20010F
S2140074C005FF300100FF300103FF2101FC670400C7
S2140074D06F00180012000104070001084A0021008E
S2140074E0FA67040051001000FD67040055002100F3
S2140074F000239B6AB3F5804F03D21968064A91426F
S21400750003D00023037083607047012202709A68DC
S2140075109B694260F7E700BF07B0CD5E024B034AA7
S2140075201A602BF013BE00BF0000002002020FF00E
S21400753073B53F4B04461A781AB102221A7002B08D
S21400754070BDCDE900220028F9D001261E7034F067
S214007550FFFB384D384B186018F090FE2B785BB95F
S21400756002F00EFC40B935480823354A3549006814
S21400757002F04EF800B92E70334B5A68E260334A78
S2140075809A601A6E22605A6E6260D3F87021A2600A
S2140075901B6E5C042CD52E4AD368D807FCD42D4B22
S2140075A01A68531C29D04FF4801393402A4A136656
S2140075B00423294C4FF0804223664FF480632366F1
S2140075C0102323664FF400536846236601A92266FB
S2140075D063662AF073F9009B2366019B63662B782B
S2140075E0002BACD0164B1A6822665B686366A6E76B
S2140075F01A4AD368D907FCD4D1E7194B1B78002B5D
S214007600D6D1184B5A68144B12B94FF480121A662A
S214007610154A526812B94FF400121A66134B5B688B
S214007620002BC5D14FF480020B4B1A66C0E700BF93
S214007630575D0020585D00207433002094670020BA
S21400764078330020007108000080004455CEAC005E
S21400765000000440606700200090004400000450D2
S214007660565D00200080055000C005500000065002
S21400767038B5224D04462B78012B02D001232B70FF
S21400768038BD0028FCD02AF03EF9013009D02AF097
S2140076903AF940F20113984203D0194AD368DB073F
S2140076A0FCD42268174B1A6662685A66A268C3F84A
S2140076B07021E268D40744BF00229A60124B1A6811
S2140076C0013213D1114A127882B911494968C807A4
S2140076D048BF1A600F4A5268D10744BF01221A6099
S2140076E00D4A5268D20744BF02221A6018F0CEFD37
S2140076F00A4B186834F027FB0023C0E7575D0020CC
S214007700000004400080004460670020565D0020B2
S2140077100080055000C0055000000650743300205D
S21400772070B50024A36AB3F5804F23D21A68134BB2
S2140077309A421FD1124E337813F0FD0518D14FF43C
S21400774080341048FFF7F4FE032005F027F80E4BB0
S2140077500320DC6005F006F80C4B1C61AB6ADB69A5
S214007760984704460748FFF783FF0CB90123337098
S214007770204670BD4FF48174FAE700BF07B0CD5EB7
S214007780565D00206433002000A0004400900044B2
S21400779013B5204B1B7803B9FEE700231E4CCDE93A
S2140077A000336A4608231D49206801F031FFF8B906
S2140077B01B4AD2F84031D2F840211F2B4FF001036C
S2140077C011D9203A9340019A1A43019208236A4637
S2140077D01249206802F0A8F8124B134A1A602BF0E0
S2140077E0B5FC02B010BD9340009A1A430092EDE734
S2140077F02D28F1D10A4AD2F84031D2F840211F2B69
S2140078004FF0010385BF203A93409340019398BF01
S2140078100093DBE7575D00209467002000710800A6
S21400782000800044000000200B020FF038B5002551
S214007830AB6A0446B3F5804F10D21B6BB3F5804F8E
S2140078400CD20748FFF774FEAB6A20461B6B5B68DA
S2140078509847BDE838400248FFF70ABF38BD00BF6A
S2140078608033002013B50024A36A0190B3F5804F3F
S21400787013D21B6BB3F5804F0FD20948FFF758FEA3
S214007880A36A01211B6B01A89B699847044604481C
S214007890FFF7EEFE204602B010BD4FF48174F9E704
S2140078A08033002070B50026B36A0446B3F5804FD7
S2140078B00D4612D21B6BB3F5804F0ED20848FFF769
S2140078C037FEB36A20461B6B29469B6998470446D9
S2140078D00348FFF7CDFE204670BD4FF48174FAE7EB
S2140078E08033002070B50026B36A0446B3F5804F97
S2140078F00D4612D21B6BB3F5804F0ED20848FFF729
S21400790017FEB36A20461B6B2946DB699847044678
S2140079100348FFF7ADFE204670BD4FF48174FAE7CA
S21400792080330020F8B50027BB6A0446B3F5804FC5
S2140079300D46164611D21B6B7BB10948FFF7F8FDC2
S214007940BB6A20461B6B324629465B6A984704464C
S2140079500348FFF78DFE2046F8BD4FF40174FAE7A2
S2140079608033002070B50026B36A0446B3F5804F16
S2140079700D4612D21B6BB3F5804F0ED20848FFF7A8
S214007980D7FDB36A20461B6B29469B6A9847044678
S2140079900348FFF76DFE204670BD4FF40174FAE70A
S2140079A080330020F0B50027BB6A0446B3F5804F4D
S2140079B00D461646ADF5337D20D21B6BB3F5804FD2
S2140079C01CD21048FFF7B4FDBB6A20461B6B40F282
S2140079D0C1225B6A01A99847044630B10948FFF7FF
S2140079E047FE20460DF5337DF0BD836A32461B6B9D
S2140079F02946DB6A01A898470446EFE74FF401746E
S214007A00EFE700BF8033002010B50024A36AB3F56B
S214007A10804F10D21B6BB3F5804F0CD20748FFF790
S214007A2087FDA36A1B6B1B6B984704460348FFF74A
S214007A301FFE204610BD0124FBE700BF8033002058
S214007A40F0B58FB0044601A80E461546FFF7EEFEC9
S214007A509DF80C30012B12D1B5F5402F27D8B4F580
S214007A60402F24D86319B3F5402F20D821462A4644
S214007A70304615F051F9002420460FB0F0BD00271F
S214007A80BB6AB3F5804F15D21B6BB3F5804F11D28E
S214007A900A48FFF74DFDBB6A2A461B6B3146204657
S214007AA05B6B984704460548FFF7E2FDE4E740F2C3
S214007AB00244E1E740F20114DEE700BF8033002015
S214007AC0F0B58FB0044601A80E461546FFF7AEFE89
S214007AD09DF80C30012B1FD1B5F5402F06D8B4F514
S214007AE0402F03D86319B3F5402F13D940F2024450
S214007AF020460FB0F0BDE258013225D104339D4236
S214007B00F9D82A463146204629F02DFF0028EDD028
S214007B100024EDE70023F2E70027BB6AB3F5804FA9
S214007B2015D21B6BB3F5804F11D20A48FFF700FD44
S214007B30BB6A2A461B6B314620469B6B9847044619
S214007B400448FFF795FDD3E740F20344D0E740F240
S214007B500114CDE78033002070B58EB0044601A82E
S214007B600D46FFF763FE9DF80C30012B22D144EA48
S214007B700503C3F30C03002B33D1B5F5402F04D90E
S214007B8040F2024420460EB070BDB4F5402FF7D840
S214007B902544B5F5402FF3D8204604F5005429F0C7
S214007BA0DBFEAC4202D00028F6D1E9E70028E7D099
S214007BB00024E7E70026B36AB3F5804F14D21B6BA8
S214007BC0B3F5804F10D20A48FFF7B2FCB36A2946D5
S214007BD01B6B2046DB6B984704460548FFF748FDBD
S214007BE0D0E740F20444CDE740F20114CAE700BFF4
S214007BF080330020BFF34F8F0549064BCA6802F456
S214007C00E0621343CB60BFF34F8F00BFFDE700BFBA
S214007C1000ED00E00400FA0570B5D0B1C9B10E4E13
S214007C20431E013913F8014F2046325D02F003026D
S214007C30012A11F8012F08BF04F12000B55C05F0F9
S214007C400305012D08BF2032801A01D1002CE9D18E
S214007C5070BD0120FCE700BF299104000348044AD8
S214007C600449121A921029F0D9BE00BF3441000010
S214007C70D04200009464002008B5154B83F30A88B0
S214007C8000F030F8FFF7EAFF124B13498B4212D38D
S214007C900020124B12498B4218D3FDF71FF81868C4
S214007CA050F82240586840F82240013298688242D4
S214007CB0F5D30C33EAE70022F8E71C6844F8220004
S214007CC001325C68A242F8D30833E4E70022F8E702
S214007CD008000020C8B50400D4B50400D4B50400DC
S214007CE0D4B50400124B134A70B59A60D3F88820B6
S214007CF0114D42F47002C3F888206FF0010205F5BA
S214007D000054226641F2FF7262660222C3F8D02057
S214007D10BFF34F8FBFF36F8F4FF44036032004F04E
S214007D203DFD0320E66004F01DFD2E6170BD00BF22
S214007D3000ED00E00040000000800044014B1860A9
S214007D40704700BF68670020054B1860054B1B6F27
S214007D5003F00703032B01D132F0DAB8704700BFF7
S214007D6070670020008000502DE9F04104464FF077
S214007D7001080C250D4E0CB9BDE8F08194FAA4F06C
S214007D80B0FA80F00F2808FA00F2C8BF103824EACC
S214007D900204CABF05FB006205FB0062B4325768E6
S214007DA0002FE8D09168C0B2B847E4E790330020CF
S214007DB008B50C4834F06AF8192004F0E1FC28B144
S214007DC0192004F0EBFC192004F0CCFC1A2004F077
S214007DD0D7FC28B11A2004F0E1FC1A2004F0C2FCFB
S214007DE0002008BD646A04002DE9F0410E461746DF
S214007DF0054618B30F2923D80378DBB1013BDBB265
S214007E00022B19D8104AD35C6A78D340DB0717D503
S214007E100E4BD3F81043ACB933F09AFF80463A467F
S214007E202846314603F028FA404633F08CFF2046B9
S214007E30BDE8F0817F23E7E70023E5E72224F6E7A5
S214007E402124F4E70224F2E75068040000C003503F
S214007E5010B5044610B30378E3B1013BDBB2022B46
S214007E601AD8104AD35C6278D340DB0718D533F0B3
S214007E706FFF0122617823788A4030214B4341F21C
S214007E80100103F1A04303F570335A5033F05BFF43
S214007E90002010BD7F23E6E70023E4E72220F8E772
S214007EA02120F6E75068040010B5044610B30378A6
S214007EB0E3B1013BDBB2022B1AD8104AD35C6278DE
S214007EC0D340DB0718D533F043FF012261782378CF
S214007ED08A4030214B4342F2100103F1A04303F5E0
S214007EE070335A5033F02FFF002010BD7F23E6E793
S214007EF00023E4E72220F8E72120F6E75068040094
S214007F0038B50D46044618B311B30378E3B1013B08
S214007F10DBB2022B1AD8104AD35C6278D340DB0758
S214007F2018D533F015FF30222378534303F1A043CE
S214007F3003F570335B696278D34003F001032B705E
S214007F4033F001FF002038BD7F23E6E70023E4E797
S214007F502220F8E72120F6E7506804002DE9F041DA
S214007F600D4616461F46044600284DD000294BD025
S214007F70017800293ED04B1EDBB2022B3CD8244AA7
S214007F80D25C6378DA40D00701D4FF293ED1022EB6
S214007F9001D9042E3AD133F0DBFE23788046FF2B3E
S214007FA005D032462046296803F0ACF928602868D8
S214007FB0421C0BD12378FF2B20D1164B6078D3F8C8
S214007FC024142AF033FB431C286017D00C22124BD3
S214007FD002FB0033069A5F609A602378FF2B04D07A
S214007FE001230E4A8340C2F82434404633F0ABFEE9
S214007FF0002007E07F22C4E70022C2E7404633F0B5
S214008000A2FE2D20BDE8F0812220FBE72120F9E723
S2140080105068040000C003509033002000D0035086
S21400802008B503F01FF9044B00F05530C3F82004E0
S214008030BDE80840FFF798BE00E0035008B503F01F
S21400804011F9044B00F0AA30C3F82004BDE808403C
S214008050FFF78ABE00E003502DE9F04F9A46554BD5
S21400806085B01B7806460F461546DDF83C909DF811
S21400807044B0DDF85080002B00F08C80072A00F218
S2140080808B800E9B002B00F08780B9F1000F00F06C
S2140080908380129BB3F5006F7EDC012802D1109B13
S2140080A0002B79D0444B03EB05131B7B002B75D0BC
S2140080B0424C10220021684614F090FC04EB451454
S2140080C01022002F58D13946204614F087FC43F280
S2140080D010036380BBF1000F03D1E37843F0030382
S2140080E0E370364A0E9B02EB451CCCE90193129BCB
S2140080F06901581E9DF84C30C0F30A0003F00303D4
S2140081009B0643EA001E53582D48012E00EA030042
S2140081104EEA0003CDF800A0535041D113230CF1D2
S214008120100ECCF80C309CE80F008EE80F006FF0B5
S2140081300301DCF81C20109B61F39F02012FCCF892
S2140081401C20CCF8143003D1CCF81890CCF80430AE
S2140081500027194A290102EB051342F80180159AF7
S21400816028465A60694622469F605E7302F056FEB5
S214008170384605B0BDE8F08F0021204614F02EFCEE
S2140081804FF444736380BBF1000FAAD1E37843F049
S2140081903003A5E70B48ECE70B48EAE70B48E8E7AF
S2140081A0B8F1000FD4D19CF8023068F304138CF8B1
S2140081B00230CDE7595D0020F8350020F834002065
S2140081C00F80FFF3028000F0018000F0078000F0CF
S2140081D038B5124B05461B78DBB1E0B133F0B8FD7D
S2140081E00F4A00231146147B54B92B6001251A014F
S2140081F001EB03131D738C5033F0A5FD204638BDEC
S2140082000133082B02F11002EDD133F09CFD054836
S214008210F5E70548F3E70548F1E700BF595D00209C
S214008220F8350020048000F0028000F0018000F0A5
S21400823038B533F08DFD002305460B4A147B6CB928
S2140082400133082B02F11002F8D102F0A3FD074B10
S21400825028461C7033F077FD204603E0284633F0AE
S21400826072FD034838BD00BFF8350020595D002078
S214008270058000F00D4B10B51B78044693B1072817
S21400828012D833F065FD0A4B03EB04131A7B2AB1B0
S21400829000241C7333F057FD204610BD33F053FD09
S2140082A00448FAE70448F8E70448F6E7595D002072
S2140082B0F8350020068000F0028000F0018000F013
S2140082C0154B13B51868002301908DF8043033F071
S2140082D03FFD124B1C7824B133F035FD104802B038
S2140082E010BD01221A7033F02EFD0E4B01A81C7330
S2140082F01C7783F82C4083F83C4083F84C4083F886
S2140083005C4083F86C4083F87C4008238DF8073087
S21400831002F05CFD2046E2E753680400595D002049
S214008320038000F0F8350020F8B50D4D2D7885B1A6
S214008330072810DC0B4D060105EB0014277B67B100
S214008340AB510025069BA560636002F067FD2846DA
S214008350F8BD0548FCE70548FAE70548F8E700BF1A
S214008360595D0020F8350020028000F0018000F002
S214008370078000F00A4A08B512785AB107280BD8C9
S214008380084A02EB00131B7B43B1002102F010FDEC
S214008390002008BD0448FCE70448FAE70448F8E76C
S2140083A0595D0020F8350020028000F0018000F0C2
S2140083B0078000F00A4A08B512785AB107280BD889
S2140083C0084A02EB00131B7B43B1012102F0F0FCCC
S2140083D0002008BD0448FCE70448FAE70448F8E72C
S2140083E0595D0020F8350020028000F0018000F082
S2140083F0078000F0184B2DE9F0411F6D5B6D1F40A4
S21400840000D5FEE701260025144CDFF858803742D9
S21400841018D02368C8F85060A3B1A1682846013177
S2140084206268A1609847637B012B0BD150B90C4B57
S21400843003EB45131A7B60F341021A731A7F60F34D
S21400844041021A770135082D4FEA460604F110045A
S214008450DDD1BDE8F08100BF00000450F8350020F3
S214008460F8340020002004502DE9F04F144606464C
S2140084700F4689B00393C36B01225B6904A9606849
S2140084809847F36B01225B6905A93846984704A80C
S21400849029F0DDFE054650B10023A37563754FF045
S2140084A0FF33A3600025284609B0BDE8F08F05A875
S2140084B029F0DAFE0123A375237E04EBC303DF61F4
S2140084C01D846368BB420ED1206005A829F0EDFE2E
S2140084D04FF0FF332075A360237D043B022B26D884
S2140084E00023A375DEE723681A1A53425341A37587
S2140084F005A829F0DAFE237D834218BFA57505A8D6
S21400850029F0B6FE804604A829F0B2FE804518BFC2
S214008510002305A818BFA37529F0B1FE804604A85D
S21400852029F0ADFE80451CBF0023A375D4E705A83F
S21400853029F09EFE80B1F36B022238465B6906A9DD
S214008540984706A829F0A2FE0346207D032839D8BE
S214008550DFE800F03838040905A8F3E7CC22237ECC
S21400856004EBC3031A8401F083FC129B187005A861
S21400857094F8188029F070FE04EBC80888F82200EA
S214008580237E05A804EBC303B3F820A093F822804B
S21400859029F06EFE814605A829F071FE8346B9F1E2
S2140085A0000F14D0F36B022238465B6906A9984781
S2140085B006A829F031FE607568B90023A3754FF050
S2140085C000093CE0227E04EBC2021384CBE705A838
S2140085D029F00DFEEFE794F81690B9F1000FEED0F3
S2140085E0BAF1000F0DD1B8F1000F1DD00123E375CD
S2140085F0637E002B3FD1B8F1010F30D184F819808B
S21400860014E0736C07EB0B015A4287EA0100104234
S2140086101CBF0022A2755A1E0A409B1A9A45CCD847
S214008620A37D002BDFD1CAE7E37D43B94FF00009F5
S21400863053465A463946304629F054FBA060A37D7F
S21400864013B12269524422611F49227E0978914261
S2140086501AD901322276039ACAB91D4623E796F83C
S21400866034307BB9F36A0133E2D1B8F1030FDFD1BE
S2140086700123A376DAE7B8F1010FE0D0B8F1030FD3
S214008680D4D1F5E79946D3E70023A3750BE7002B73
S2140086903FF409AFE57D002DDFD0B9F1000F11D111
S2140086A0B8F1030F3FF4FFAEA1684B1C3FF4FBAEDE
S2140086B0129B2246009330460123FFF7D5FE05465F
S2140086C0A075F0E64D46EEE6786804002DE9F04F1A
S2140086D00E46984600238BB004464FF0FF311046F6
S2140086E017468DF8133001F0ADFBB6F5801F20D28B
S2140086F0314605AA04F1080029F0FBFC451C01469A
S21400870003D1237CBBB92D2010E0384601F09AFB3C
S2140087100122394620460DF1130329F035FB0028C7
S214008720EFD09DF8133088F8003000200BB0BDE87D
S214008730F08FB01CE5D1E56A691C36D12046616A27
S21400874029F016FA0546B31C18BF0123DFF8CC90B3
S2140087500193636A626C0293236805A902FB053ADB
S214008760E36B05225B695046984705A829F009FE89
S21400877029F02CFE504629F034FE4FF0000B8246BE
S21400878001464B1C05D0636C81EA0A025B42134229
S21400879011D02946204629F0EBF9029BAB422CD09B
S2140087A0BBF1000F2CD10546D3E72368ED1A636CA6
S2140087B0B5FBF3F5C7E7484601F044FB0DF113039C
S2140087C049462046019A29F0DFFA034690B1B21CCA
S2140087D003D0D9F80020B2420CD19DF813200393A1
S2140087E00D4B88F8002049461A68384614F094FA6B
S2140087F0039B9B46D9F80810C3E7BBF1000F82D055
S214008800B6F5801F91D2314698F800307A6804F1A8
S214008810080001F045FA88E774680400EC3C002084
S2140088202DE9F3410446174698460E46184D816AD0
S214008830E36A8B4201D04B1C02D102B0BDE8F08146
S214008840284601F0FFFA0122294620460DF10703CB
S21400885029F09AFA38B14346294620469DF8072063
S214008860B8470028E9D0A9684A1C04D169682046A0
S21400887029F00BFA0146012EDAD16B6881EA030271
S214008880636C5B421A4218BF4FF0FF31D0E700BF5F
S214008890C03C00202DE9F04F4FF0FF334FF6FF723B
S2140088A00025044600F108068BB0C0E90923C36220
S2140088B0056205633046884629F0ECFB204629F021
S2140088C027F960BB2046414629F0A2F9204629F048
S2140088D01FF960BB5E200BB0BDE8F08F2368E26B2B
S2140088E0606C576900FB0530052205A9B84705A846
S2140088F029F047FD012807460CD12946204629F0D5
S21400890058F9012F024600D101322946204629F0A7
S2140089101EF903E029F05FFD0028EED10135E3697A
S2140089209D42DBD3204629F0F3F80028CAD0002564
S2140089304FF0FF394FF6FF73CA46A846C4E90853FE
S214008940E36998450AD3A5EB0905012D2CD84FF607
S214008950FF72636A93423CD16720BCE72368E26BF0
S214008960606C576900FB0830052205A9B84705A8C2
S21400897029F007FD834605A829F0DAFC0746584685
S21400898029F024FD68B1574538BFC4F82480B9459E
S21400899028BFB946BD4238BF3D46BA46236A0133B2
S2140089A0236208F10108CBE74FF6FF7300256362E8
S2140089B0E3699D42CBD2676C2068E36B052207FB18
S2140089C005005B6905A9984705A829F0B1FC0135A3
S2140089D0EEE7E26B676C2068694607FB03005569A3
S2140089E00522A847684629F0A3FC626A2368606CE3
S2140089F04B4D00FB023029F0F4FC4FF0FF33A06231
S214008A00E3622A466FF00101204605ABFFF75EFEE3
S214008A10002846D1AD6829462046E56229F054F87C
S214008A20206320B92046E16A29F02FF9E062294642
S214008A30204629F02AF90546A36A9D4233D12046EE
S214008A4029F015F800278046B946E36999453CD3D6
S214008A50B84559D92046616A29F08AF800260546A5
S214008A6004F1400AB74212D8626C2368694602FBDA
S214008A700539E36B05225B6948469847684629F046
S214008A8057FC534602464946E06B29F0ACFC2946A3
S214008A90204629F06DF80136B0450546E2D164203F
S214008AA019E7A56AB7E72946204629F00DF8236B93
S214008AB02946034407462363204629F0E6F8054680
S214008AC0002FB9D1C4E90B07B6E7636C2568052209
S214008AD003FB0955E36B05A95B692846984705A87B
S214008AE029F04FFC29F072FC58B1284629F079FC91
S214008AF00146204628F0E8FF636C143B984208BF06
S214008B00013709F10109A0E7304629F0C3FA00232E
S214008B1020461946034AFFF783FE0020DBE600BF27
S214008B20183D0020771D03002DE9F041036B9046A9
S214008B30826B90B09A4288BF8363426C436A076830
S214008B400E4602FB0377C36B01A905225B69044648
S214008B503846984701A829F014FC012801463070D1
S214008B6057D0656CE26B2368606AD2F814C005FBC8
S214008B700030052206A9E04706A829F002FC0128D5
S214008B804FF0000523D0D4E90A3201219342CDE903
S214008B900B458DF834800E958DF83C102AD1194679
S214008BA0204629F072F8236B626C14339B1AE0623D
S214008BB023630C9B53B99DF83C303BB1626A616CF1
S214008BC02368E06B01FB023129F093FB0C9DE36BFD
S214008BD005225B6901A93846984701A829F0D1FB10
S214008BE030702846236BA26B9A4288BFA36310B0EE
S214008BF0BDE8F081237C33B91C490BAA04F10800B8
S214008C0001F09CF8D5E72046194A0BABFFF708FEA3
S214008C10CFE7237C23BB2246164904F1080001F067
S214008C208DF8616A204628F0C4FF616A421C20461F
S214008C3028F08DFF054620B9236B626C1344143B65
S214008C4023632046A16A29F020F82368A062C01A90
S214008C50636CB0FBF3F06062204629F059F8B6E783
S214008C6000232046044AFFF7DBFDDAE7CD93000039
S214008C7049930000111E0300AD1D030073B50D4699
S214008C80D11E4A421C461B7E4A419A4226D129687A
S214008C902368994222D3636899421FD8114E0DF17A
S214008CA007033246FFF712FDC0B972686B689A4236
S214008CB014D19DF80730DA1E53425341227E934268
S214008CC00CD1636901336361D4E90323934205D26F
S214008CD02968A26842F8231001332361012002B0FC
S214008CE070BD00BF183D00202DE9F04F9A468BB0AE
S214008CF09DF85030DFF850B10293DBF81030804614
S214008D0053450D461646C0F09880D146DBF8043031
S214008D100193B9F1000F00F08C80D8F83C300122A6
S214008D205B6907A90198984707A829F09DFADBF820
S214008D300030984240F0848007A829F0A0FA042862
S214008D40074614D107A829F0A1FA019B029A044607
S214008D503B44002A3ED1864212D91446361A404673
S214008D60019928F092FFA9EB04090190D1E7D8F801
S214008D703C3002225B69019808A9984708A8E2E7F8
S214008D80841B544528BF5446032C03EB0607AAEB66
S214008D90040A1DD9D8F83C30294638465B69A20833
S214008DA0984724F0030304F003061F441D44002ED6
S214008DB0D5D0D8F83C3001225B6908A938469847D8
S214008DC03246284608A9354413F0A6FF0026C6E713
S214008DD02646ECE7074600F00302039203442A18EF
S214008DE004920593049BDD1B059BD81B039B9F42A7
S214008DF00FD1002FB3D0D8F83C30012208A95B6908
S214008E0098473A46284608A913F03AFE78B93D44F2
S214008E10A5E7D8F83C30012208A95B6998470422E8
S214008E20284608A913F02CFE08B9043FDAE74FF0ED
S214008E30360948460BB0BDE8F08F4FF06309F8E7F7
S214008E404FF06F09F5E700BF443D00202DE9F041E3
S214008E500F4616469846044688B060B390F83450DD
S214008E60FDB1012128F049FE00210E9BCDE9051138
S214008E70CDE902379DF83C30CDF804808DF81C30E3
S214008E80237C04968BB90D4901AA04F1080000F072
S214008E9055FFDDE90553E06B002E08BF1D4628F0A0
S214008EA0C5FF284608B0BDE8F0812046044A01AB5D
S214008EB0FFF7B6FCEDE70546F3E700BFDB1D030052
S214008EC07D8C00007FB590F84260044601920DF15B
S214008ED00B030A463046114928F0B0FF012E05461E
S214008EE0E36B17D132465B6903A998479DF80B10D0
S214008EF0039B019A59B19BB243EA024301222846DA
S214008F000393E36B03A99B69984704B070BD62F3B3
S214008F100F03F3E701229B6901A9F5E7443D002012
S214008F202DE9F04F99B0CDE90B230E460A69416C46
S214008F30D31D1439B3FBF1F3013302EBC302036B09
S214008F4004469342C0F0FB810023DFF8F8930A93AF
S214008F50E36A48461946079300F074FFD6E90337DC
S214008F6005930C9B022B1CD1CC2F40F074810B9BDD
S214008F708BB13146204628F0B7FF656C14900B9BEA
S214008F8063B1E36B01225B69706816A9984716A85F
S214008F9029F06EF90CE0059B1B68149308230E93CA
S214008FA00DE0782F656CEAD80B9B002BE9D1F07D9D
S214008FB000280CBF04230823782F0E9328D90123FA
S214008FC00025089308230393336808990C98C9F87A
S214008FD00030C9F8107029F06CF900230F930D9338
S214008FE006930993039BDDF81CA09B0889F81400E0
S214008FF01193616C03984A1E0AEA02028B1AEFB1BB
S2140090000544AB421CD8236B5B1A1344236386E0EB
S214009010079A6B1E1340EB1A3A1D934207D257B1BC
S214009020082BCCD80023042508930395CCE700250D
S21400903004230895C7E704250897F6E78342E2D39A
S214009040039AB8469B1A9F4228BF984652449F42AE
S214009050049278D90123D9F8102089F8173097425E
S21400906076D1C9F804A0069399F81730002B71D072
S21400907099F818200699D31C09EBC3030132C3F8EC
S21400908004A0A3F80880997289F81820B8F1000F98
S21400909014D00C9B022B60D10F9B7BB90D9B4344D5
S2140090A0032B0BD9E36B01229B69049814A99847FC
S2140090B00546002840F0D58001230F93069B16A88E
S2140090C00193089B009399F814204346316800F0FA
S2140090D06FFEE36B50469B69119A16A99847051ECA
S2140090E00A9B18BF5346039A0A93514643462046A6
S2140090F028F0F8FD236B039AC9F808009B1A08F1BC
S214009100030222F003029B1A2363002D40F0A9807D
S2140091100D9BDDF810A04344A7EB08070D935146BE
S214009120204628F0B2FD00258246002F7FF461AF6E
S214009130844A3168936804F10800E36252680C9B25
S21400914000F0AEFD89E0069B002B18BF03238AE7DC
S214009150022388E7C9F804A098E70B9B002B30D1C0
S214009160059BB8F1030F03EB080B27D9DDE90401D3
S214009170E36B4FEA98029B6998470546002864D13E
S21400918018F003025ED0059B28F003052B440593D8
S214009190049B1D444FF0FF33059915A8159313F053
S2140091A0BBFDE36B284601229B6915A99847054637
S2140091B0CDF814B0002D81D0049B94E74246049D60
S2140091C0E8E706F12003DDF810B01093F37D706831
S2140091D09BB10023357E099AD9B28D4211D91099D8
S2140091E003F1010C31F83310914225D90E9906EBA4
S2140091F0C303D8690A44104403E00E9B099A13443B
S2140092001844E36B01225B6915A99847159B012258
S2140092101393099B584604330993E36B13A99B6980
S2140092209847049B05464344A3EB0B03042B06D93F
S21400923070B90BF1040BC9E76346521ACCE7CDF8B8
S21400924010B0B7E7CDF814B038E7CDF814B0B3E7F0
S214009250CDF810B0B0E770252F46384619B0BDE8F7
S214009260F08F3D2DF8D104F1080303932368079A85
S214009270606CA2EB030ABAFBF0FA00FB0A3029F096
S214009280B0F8E16A8046204628F0FFFCA36A216B0E
S2140092908342626C45D0D9F80830571E3B40891A85
S2140092A00B44276823630A9BE062DF1BB7FBF2F7D9
S2140092B0BA4533D1079BB3EB080A12D0E36B4FEAEB
S2140092C09A0241469B6998478346E36A079A534445
S2140092D0E362236B03989B1A4344236328F0DAFE69
S2140092E0DA462368616CE06B01FB073128F0EEFF7D
S2140092F0204628F00DFC204628F00AFD3269616CF5
S214009300D31D1439B3FBF1F30133206302EBC30220
S214009310BAF1000F05D09042A8D29DE74FF0000AA0
S214009320DFE73269616CD31D1439B3FBF1F3013307
S21400933002EBC302236B9342BFF40AAE8CE71C27F2
S2140093408BE700BFEC3C0020032A2DE9F3410646DC
S2140093500D4617461C4606D1237A012B23D0012042
S21400936002B0BDE8F081DFF86080096842460DF182
S2140093700703FFF7ABF960600028EDD19DF80730D2
S214009380032BE9D0D8F804206B689A42E4D1237AFC
S2140093902969012BD4F80CC007D172690CEB0103C4
S2140093A0934202D92074207CDAE708316144E160F8
S2140093B03B46012229463046FFF7B2FD6060002892
S2140093C0CAD00020CCE700BF183D00202DE9F341AD
S2140093D0032A1746089C06D1237A012B25D00120A4
S2140093E002B0BDE8F0812668DFF89080304642463D
S2140093F00DF10703FFF76AF960600028ECD12568D5
S214009400D8F80400A96A6A6C4840534210EA030C74
S214009410E2D1237A012B0AD1E068D8F81030034451
S2140094207069834203D984F810C0207CD8E7286886
S214009430EB6A1B1A081AB3FBF2F3B0FBF2F0834296
S2140094400BD1706CF36A421E1340326B121A13442F
S2140094502846336328F019FCE862D8F81020E36841
S21400946008321344E36001223B4604492068FFF7B4
S21400947057FD60600028AFD00020B1E7183D0020FF
S2140094802DE9F0410025604B0E46D3F800800446D7
S2140094901D6018B921252846BDE8F08190F8347083
S2140094A007B30A6803689A4240F0A4804A68436893
S2140094B09A4240F09F808A6883689A4240F09A8079
S2140094C0CA68C3689A4240F095800A6943699A421E
S2140094D040F090808A69C36B9A4240F08B804B695B
S2140094E08361D8E768223946856B13F077FAD6E9A8
S2140094F00212336804F1080023607368A563636092
S214009500336963617369A36128F0D6FDB36904F11A
S2140095104000E3639B68984720B9676C17B163689F
S214009520B3FBF7F794F84330E761002BB2D0002383
S214009530656C2366002D65D0002F63D02368B3FBCF
S214009540F5F205FB1233002B56D16668B6FBF5F331
S21400955005FB1363002B4FD1204628F0A5FAA3691C
S214009560043303449E4249D340F634726369CC3BCD
S214009570934245D8B5F5805F44D30321204628F0B2
S214009580BCFAD4E90001E36B1B6898470546E36B19
S2140095900220DB689847D5B941462046FFF77AF99E
S2140095A06428054604D141462046FFF773F9054670
S2140095B06DB9636C226A143B204602FB03F628F062
S2140095C073FAA369043303449E4238BF5A25002D1C
S2140095D00CBF0123002384F8343007D1D4E90001FE
S2140095E00A4A13680133136028F000FEE06B28F087
S2140095F01DFC50E75D254EE759254CE75A254AE7FE
S2140096005F2548E75B2546E77C3600207836002055
S2140096102DE9FF410C4616461F46054688B390F8CE
S214009620343083B3B1F5801F2FD2DFF86480012178
S21400963028F063FA4246214628460DF10F03FFF74D
S21400964045F80246C8B99DF80F30012B10D1D8F85E
S2140096501030BB4213D1009031462846FFF744FB3A
S2140096600446E86B28F0E2FB204604B0BDE8F08133
S214009670022B0CBF60242D24F3E72D24F1E763248E
S214009680EFE72124F0E71124EEE72924ECE700BFFA
S214009690443D00202DE9F04385B00E4617461C4693
S2140096A00546DDF83080A0B390F834309BB3B1F5B2
S2140096B0801F32D2DFF86890012128F01EFA4A4651
S2140096C0314628460DF10F03FFF700F8E8B99DF87C
S2140096D00F30012B14D1D9F8102004EB08039A425E
S2140096E015D322460090434639462846FFF7FCFA33
S2140096F00446E86B28F09AFB204605B0BDE8F083E8
S214009700022B0CBF60242D24F3E72D24F1E76324FD
S214009710EFE72124F0E71124EEE72924ECE700BF69
S214009720443D002073B50C461646054630B390F807
S21400973034302BB3B1F5801F24D2012128F0DDF997
S21400974021462846104A0DF10703FEF7BFFF0446E0
S21400975080B99DF80730032B0CD0022B0CD128467D
S214009760094928F0C1FB3060E86B28F05FFB204613
S21400977002B070BD2D24F7E76124F5E72124F6E753
S2140097801124F4E72924F2E7443D00202DE9F341B3
S2140097901E4600230C4617460546336050B390F825
S2140097A034304BB3B1F5801F28D2DFF85480012146
S2140097B028F0A3F92146424628460DF10703FEF796
S2140097C085FF0446A0B99DF80730032B10D0022B66
S2140097D003BF01233B600423D8F8103018BF38605D
S2140097E03360E86B28F022FB204602B0BDE8F0812B
S2140097F02D24F6E72124F7E71124F5E72924F3E7DB
S214009800443D002073B50446056B28F04DF9636EA1
S21400981003449D422CBF00230123854294BF0025AC
S2140098202D1A207C84F85030656584F85800A8B15D
S21400983000230C4E1A4619462046009628F018FCBF
S214009840002305461A4619462046009628F019FCBD
S214009850E3682844984294BF0020C01AE06502B02E
S21400986070BD00BFFFFF0F002DE9F3471E4643699A
S2140098700446B342884617469DF828904ED30025E6
S2140098808DF80750204628F00FF9D4F830A082450E
S2140098900AD2236AB5EB430F06D2002220460DF10A
S2140098A00701FFF741F9B8B39DF80730012B05D142
S2140098B0002220460DF10701FFF736F9B9F1030F34
